:020000040800F2
:10000000D0070020CD0100087D0B0008E70500089F
:10001000790B0008C7040008171200080000000050
:10002000000000000000000000000000090D0008B2
:10003000CB04000800000000F10B00081D0E0008B2
:10004000E7010008E7010008E7010008E7010008F0
:10005000E7010008E7010008E7010008E7010008E0
:10006000E7010008E7010008E7010008E7010008D0
:10007000E7010008E7010008E7010008E7010008C0
:10008000E7010008E7010008E7010008E7010008B0
:10009000E7010008E7010008E7010008E7010008A0
:1000A000E7010008E7010008E7010008E701000890
:1000B000E7010008810E0008E7010008E7010008D9
:1000C000E7010008E7010008E7010008E701000870
:1000D000E7010008F50F0008E7010008E701000844
:1000E000E7010008E7010008E7010008E701000850
:1000F000E7010008E7010008E7010008E701000840
:10010000E7010008E7010008E7010008E70100082F
:10011000E7010008E7010008E7010008E70100081F
:10012000E7010008E7010008E7010008E70100080F
:1001300000F002F800F03AF80AA090E8000C8244BF
:100140008344AAF10107DA4501D100F02FF8AFF29C
:10015000090EBAE80F0013F0010F18BFFB1A43F0A5
:10016000010318478C5F0000AC5F0000103A24BF09
:1001700078C878C1FAD8520724BF30C830C144BF0C
:1001800004680C607047000000230024002500264E
:10019000103A28BF78C1FBD8520728BF30C148BFEA
:1001A0000B6070471FB51FBD10B510BD00F060F9A2
:1001B0001146FFF7F7FF02F0A5FC00F07EF903B44B
:1001C000FFF7F2FF03BC01F0A5F8000009488047E3
:1001D00009480047FEE7FEE7FEE7FEE7FEE7FEE729
:1001E000FEE7FEE7FEE7FEE704480549054A064B41
:1001F00070470000210E000831010008D0010020E6
:10020000D0070020D0030020D0030020704710B595
:100210004C1084EA530404D54042C1F1000138BFB8
:10022000491E1B4204D55242C3F1000338BF5B1E76
:1002300000F049F814F0804F04D04042C1F10001B1
:1002400038BF491E14F0004F04D05242C3F10003DE
:1002500038BF5B1E10BD40EA010310B59B070FD1EC
:10026000042A0DD310C808C9121F9C42F8D020BA26
:1002700019BA884201D9012010BD4FF0FF3010BDDE
:100280001AB1D30703D0521C07E0002010BD10F8AC
:10029000013B11F8014B1B1B07D110F8013B11F872
:1002A000014B1B1B01D1921EF1D1184610BD02F06B
:1002B000FF0343EA032242EA024200F088B8704793
:1002C00070477047704753EA020C00F069802DE9CF
:1002D000F04B4FF00006002B1FBFB3FA83F503FA73
:1002E00005F424FA05F65E4012BF1643B2FA82F511
:1002F00002FA05F4C5F120051EBF22FA05FC44EA06
:100300000C04203556EA044C4FEA144418BF641C10
:100310004FF000084FF00009904271EB030C39D305
:10032000002919BFB1FA81F701FA07F6B0FA80F790
:1003300000FA07F6C7F120071EBF20FA07FC46EABD
:100340000C062037B6FBF4FCA7EB0507103F07F0BF
:100350001F0BCBF120060CFA0BFB2CFA06F644BF60
:10036000B3460026202FA4BF5E464FF0000B5BEA89
:10037000060C08BF4FF0010B19EB0B09ABFB027C1D
:1003800048EB0608C01B06FB02CC0BFB03CC71EB51
:100390000C01C1E70B46024641464846BDE8F08BDA
:1003A00013B54FF000004FF00001AFF30080BDE83F
:1003B0001C40704710B500F02BF8006810BD10B558
:1003C000044600F025F8046010BD4FF00002042937
:1003D000C0F0128010F0030C00F02080CCF1040C6F
:1003E000BCF1020F18BF00F8012BA8BF20F8022BA8
:1003F000A1EB0C0100F012B85FEAC17C24BF00F849
:10040000012B00F8012B48BF00F8012B70470000BA
:10041000004870476C0100204FF0000200B5134601
:1004200094469646203922BFA0E80C50A0E80C5014
:10043000B1F12001BFF4F7AF090728BFA0E80C50C5
:1004400048BF0CC05DF804EB890028BF40F8042BBE
:1004500008BF704748BF20F8022B11F0804F18BF2B
:1004600000F8012B70470000004870476C01002025
:100470007546FFF7F9FFAE4605006946534620F082
:100480000700854618B020B5FFF7AEFEBDE8204056
:100490004FF000064FF000074FF000084FF0000B40
:1004A00021F00701AC46ACE8C009ACE8C009ACE8F3
:1004B000C009ACE8C0098D4670470446AFF3008020
:1004C0002046FFF77CFE00BFFEE770472DE9F041B4
:1004D000024600250026002000230024002791F872
:1004E00003C00CF00F0591F803C00CF0100CBCF128
:1004F000000F03D091F802C04CEA050591F800C046
:10050000BCF1000F31D0146800202BE04FF0010C3B
:100510000CFA00F3B1F800C00CEA03069E4220D1A9
:1005200083004FF00F0C0CFA03F7BC4305FA03FCF1
:100530004CEA040491F803C0BCF1280F06D14FF037
:10054000010C0CFA00FCC2F814C00AE091F803C0D8
:10055000BCF1480F05D14FF0010C0CFA00FCC2F8B9
:1005600010C0401C0828D1D31460B1F800C0BCF101
:10057000FF0F34DD546800202EE000F1080C4FF02E
:10058000010808FA0CF3B1F800C00CEA03069E4219
:1005900021D183004FF00F0C0CFA03F7BC4305FA8E
:1005A00003FC4CEA040491F803C0BCF1280F05D108
:1005B00000F1080C08FA0CF8C2F8148091F803C096
:1005C000BCF1480F07D100F1080C4FF0010808FA00
:1005D0000CF8C2F81080401C0828CED35460BDE847
:1005E000F0810161704700BFFEE7000010B50020F8
:1005F0000E4908600E48006820F470400C490860FD
:100600000846006840F44050086000200949C1F8DD
:10061000AC0100F08EF901200449086000F089F96E
:1006200000200449C1F8A80110BD0000A8812142A2
:10063000040C01400080214210B500200E490860E2
:100640000E48006820F470400C49086008460068B5
:1006500040F44050086001200949C1F8AC0100F0A5
:1006600068F901200449086000F063F9002004499A
:10067000C1F8A80110BD0000A8812142040C01406E
:100680000080214270B5054600241648006820F419
:100690007040144908600846006840F40040086053
:1006A000002614E000201049086000F042F9012003
:1006B0000E49C1F8A8016006040E0B487C3800689A
:1006C00008B1601CC4B200F034F9701CC6B2082E28
:1006D000E8DB15B9FFF7B0FF01E0FFF787FF204621
:1006E00070BD0000040C0140A8812142008021421D
:1006F00070B504461248006820F470401049086044
:100700000846006840F44050086000200D49086029
:10071000002512E0E0090B49091D08606006040E7F
:1007200001200949C1F8A80100F003F9002005499A
:10073000086000F0FEF8681CC5B2082DEADB70BD49
:10074000040C0140A88121420080214210B50E48CE
:10075000006820F470400C4908600846006840F4C6
:10076000405008600120094908600949C1F8A80102
:1007700000F0DFF800200549086000F0DAF80020FA
:100780000349C1F8A80110BD040C0140AC8121420D
:100790000080214210B50E48006820F470400C49DA
:1007A00008600846006840F440500860002009498D
:1007B00008600949C1F8AC0100F0BBF80120054907
:1007C00008600549C1F8AC0100F0B3F810BD0000A5
:1007D000040C0140A88121420080214210B5002470
:1007E0001448006820F47040124908600846006808
:1007F00040F40040086001200F49086000F099F8BB
:1008000001200E49C1F8A80100F093F807E0601C30
:10081000C4B2FA2C03DDFFF7BDFF012010BD06486E
:10082000803800680028F2D10349091F086000BF22
:10083000F4E70000040C0140AC8121420080214219
:1008400008B50121082000F0E5F90320ADF800000B
:1008500010208DF8030003208DF80200694605483A
:10086000FFF734FE0120044908600449C1F88401FF
:1008700008BD0000000C014080812142008021421F
:1008800010B5002400F05AF880226B21682000F097
:100890001DF9642001F09CF800226B21682000F013
:1008A00015F9032000F0CDF8002000F0C1F8322047
:1008B00000F0EEF800223821682000F007F900224D
:1008C0006A21682000F002F900222321682000F04C
:1008D000FDF882223721682000F0F8F875216820A1
:1008E00000F048F80446712C10D101226B216820D9
:1008F00000F0ECF800226C21682000F0E7F83220CC
:1009000000F0C6F8052000F0A5F801E0012010BDB8
:1009100000210C2000F02EF80446482C05D11122AD
:100920000A210C2000F0D2F801E00120EFE70020BE
:10093000EDE710B5022001F071F810BD08B50121F6
:10094000082000F067F94FF44060ADF80000102077
:100950008DF8030003208DF8020069460448FFF774
:10096000B5FD4FF440610248FFF73BFE08BD0000B3
:10097000000C014070B504460D46FFF7E7FE00216C
:1009800041EA4401C8B2FFF7B3FEFFF727FF28464C
:10099000FFF7AEFEFFF722FFFFF7D8FE012101EBC4
:1009A0004401C8B2FFF7A4FEFFF718FF0020FFF7CD
:1009B00069FE0646FFF7EEFE304670BD2DE9F041B8
:1009C00006460F4614461D46FFF7C0FE002141EAC9
:1009D0004601C8B2FFF78CFEFFF700FF20B1FFF71A
:1009E000D9FE0120BDE8F0813846FFF781FEFFF710
:1009F000F5FEFFF7ABFE012101EB4601C8B2FFF7A0
:100A000077FEFFF7EBFE0DE0012C04D10020FFF78D
:100A100039FE287003E00120FFF734FE2870601EC5
:100A2000C4B26D1C002CEFD1FFF7B4FE0020D9E753
:100A300010B50446E006020E1C21682000F046F8BE
:100A400010BD10B50446E006020E1B21682000F020
:100A50003DF810BD70B504460025BC2C01DB012516
:100A600010E0622C01DB02250CE02A2C01DB0325BF
:100A700008E0142C01DB042504E00A2C01DB052529
:100A800000E006252A461A21682000F01FF870BDF4
:100A900070B50446B4F57A7F01DD4FF47A74042C06
:100AA00000DA04244FF47A7090FBF4F0401EC5B2D3
:100AB0002A461921682000F009F80546264604EB6D
:100AC000D671C1F34F00FFF7C5FF70BD70B5044686
:100AD0000D461646FFF73AFE002141EA4401C8B22E
:100AE000FFF706FEFFF77AFE18B1FFF753FE01206D
:100AF00070BD2846FFF7FCFDFFF770FE3046FFF79C
:100B0000F7FDFFF76BFE18B1FFF744FE0120EFE79A
:100B1000FFF740FE0020EBE72DE9F04105460E46C9
:100B200017469846FFF712FE002141EA4501C8B278
:100B3000FFF7DEFDFFF752FE20B1FFF72BFE01208D
:100B4000BDE8F0813046FFF7D3FDFFF747FE0024F4
:100B50000CE018F80400FFF7CBFDFFF73FFE18B1DB
:100B6000FFF718FE0120EBE7601CC4B2BC42F0DBCB
:100B7000FFF710FE0020E3E700BFFEE7704700002C
:100B800070B5002100230F22C47804B3154C2468EB
:100B900004F4E064C4F5E064210AC1F10403CA402E
:100BA000447804FA03F184781440214309010E4C7F
:100BB0000678A155047804F01F050124AC4005789F
:100BC0006D11AD0005F1E025C5F8004109E004789C
:100BD00004F01F050124AC40044D0678761145F859
:100BE000264070BD0CED00E000E400E080E100E094
:100BF0007047000029B1064AD2690243044BDA610A
:100C000004E0034AD2698243014BDA617047000075
:100C10000010024029B1064A92690243044B9A61CE
:100C200004E0034A92698243014B9A6170470000D5
:100C30000010024030B500210022002400232D4D79
:100C40006D6805F00C0121B1042905D0082923D1D4
:100C500005E0294D056022E0274D05601FE0254D88
:100C60006D6805F47012234D6D6805F4803402251B
:100C700005EB92421CB9214D554305600BE01D4D1B
:100C80006D6805F400351DB11C4D5543056002E04B
:100C9000194D5543056002E0174D056000BF00BFC8
:100CA000144D6D6805F0F0010909154D6B5C056880
:100CB000DD4045600F4D6D6805F4E061090A104D97
:100CC0006B5C4568DD4085600A4D6D6805F46051D8
:100CD000C90A0B4D6B5C4568DD40C560054D6D680C
:100CE00005F44041890B074D6B5CC568B5FBF3F516
:100CF000056130BD0010024000127A0000093D007D
:100D00002A0000203A000020704710B500F002F8D9
:100D100010BD00000CB50020019000903348006821
:100D200040F480303149086000BF3048006800F46A
:100D3000003000900198401C0190009818B901986B
:100D4000B0F5A06FF1D12948006800F4003010B16F
:100D50000120009001E0002000900098012843D17C
:100D60002348006840F010002149086008460068E8
:100D700020F0030008600846006840F002000860A8
:100D80001A48406819494860084640684860084663
:100D9000406840F4806048600846406820F47C1059
:100DA00048600846406840F4E8104860084600681B
:100DB00040F08070086000BF0C48006800F00070D0
:100DC0000028F9D00948406820F00300074948602E
:100DD0000846406840F00200486000BF0348406891
:100DE00000F00C000828F9D10CBD000000100240F2
:100DF00000200240042808D14FF0E021096941F0A9
:100E000004014FF0E022116107E04FF0E021096991
:100E100021F004014FF0E02211617047704700009B
:100E200010B51348006840F00100114908600846F9
:100E30004068104908400E494860084600680E495D
:100E400008400B4908600846006820F480200860CC
:100E50000846406820F4FE0048604FF41F00886098
:100E6000FFF753FF4FF000600449086010BD000019
:100E7000001002400000FFF8FFFFF6FE08ED00E062
:100E800010B50121044800F048F818B101210248CA
:100E900000F034F810BD0000000400407FB50546A6
:100EA0000C4601210220FFF7A5FEADF80850ADF871
:100EB00004400020ADF80A00ADF8060001A90E4874
:100EC00000F046F8012211460B4800F037F81D20CB
:100ED0008DF8000001208DF8010003208DF802003C
:100EE00001208DF803006846FFF74AFE0121024801
:100EF00000F007F87FBD000000040040CA430282F2
:100F0000704721B1028842F00102028004E00288A9
:100F10004FF6FE731A400280704730B5024600203B
:100F200000230024158A05EA0103958905EA0104D6
:100F300013B10CB1012000E0002030BD1AB183894B
:100F40000B43838102E083898B43838170470000D8
:100F5000002202881D4B98420ED01D4B98420BD0A8
:100F6000B0F1804F08D01B4B984205D01A4B9842E5
:100F700002D01A4B984204D14FF68F731A404B8817
:100F80001A43174B984207D0164B984204D04FF69D
:100F9000FF431A40CB881A4302808B8883850B88D5
:100FA00003850A4B98420BD0094B984208D00E4B50
:100FB000984205D00D4B984202D00D4B984201D17A
:100FC0000B7A03860123838270470000002C0140C6
:100FD000003401400004004000080040000C0040C4
:100FE0000010004000140040004001400044014057
:100FF0000048014010B540F225511D4800F04AF864
:1010000010B31B4800F002F9C4B21A48008800F47B
:101010000040C8B91748008800F4804060B10A2C2D
:1010200003D000201349088020E01248008840F4D3
:1010300000401049088019E00D2C06D10D480088A9
:1010400040F480400B49088010E00A480088C0F353
:101050000D0009490C5407480088401C05490880C8
:1010600008460088C72801DD0020088010BD000068
:1010700000380140280000209200002021B1828920
:1010800042F40052828104E082894DF6FF731A40D7
:101090008281704770B5024600240023002500209D
:1010A00040F66A16B14200D100BFC1F3421501F00B
:1010B0001F03012606FA03F3012D02D1968933405E
:1010C00006E0022D02D1168A334001E0968A3340B1
:1010D0000C12012606FA04F41688344013B10CB140
:1010E000012000E0002070BDF0B50346002400267A
:1010F0000025002040F66A17B94200D100BF18460B
:10110000C1F3421401F01F06012707FA06F5012C6E
:1011100001D10C3004E0022C01D1103000E0143079
:101120001AB107682F43076002E00768AF43076002
:10113000F0BD00002DE9F04786B005460E460024BC
:10114000A24600BFA1460027B08900B100BF2F46CC
:101150002C8A4CF6FF700440F08804432C82AC8942
:101160004EF6F3100440B088318908437189084372
:101170000443AC81AC8A4FF6FF400440B08904437D
:10118000AC8201A8FFF756FD1F48874202D1DDF867
:1011900010A001E0DDF80CA0A88900F4004040B1E7
:1011A0000AEBCA0000EB0A1031684900B0FBF1F805
:1011B00007E00AEBCA0000EB0A1031688900B0FBB7
:1011C000F1F86420B8FBF0F004012009642101FB70
:1011D0001089A88900F4004040B1322000EBC9001A
:1011E000B0FBF1F000F00700044308E0322000EB10
:1011F00009106421B0FBF1F000F00F0004432C81D2
:1012000006B0BDE8F087000000380140014688883C
:10121000C0F30800704700BFFEE7490050EAC12054
:1012200018BF04204A0D18BF40F0010040F2FF72C1
:10123000B2EB515F08BF40F00200012808BF052053
:1012400070472DE9F0414F1E00EBC7010446D1E97C
:10125000000115461E4637F006020DD02A463346D9
:1012600003F054FA7F1E04EBC703D3E9002303F015
:1012700045F837F00602F1D1022F25D0042F13D004
:10128000062F18BFBDE8F0812A46334603F03EFA28
:10129000D4E90A2303F032F82A46334603F036FA3B
:1012A000D4E9082303F02AF82A46334603F02EFA3D
:1012B000D4E9062303F022F82A46334603F026FA3F
:1012C000D4E9042303F01AF82A46334603F01EFA41
:1012D000D4E9022303F012F82A46334603F016FA43
:1012E000D4E90023BDE8F04103F008B8012204F07E
:1012F00012B803F003B8002213461046114603F05B
:10130000ADB80000024A0020110704F004B8000044
:1013100001FDFFFF00BF70472DE9F04D8D4F21F01B
:10132000004A86B005460C46BA452ADBAAEB070000
:1013300028430AD08848824501DC1AD1CDB106B0D5
:101340002846BDE8F04DFFF7D1BF844A844B2846BC
:1013500003F0DCF907460E46824A834B28462146B5
:1013600003F0D4F906B03A463346BDE8F04D02F03A
:10137000C5BF0120FFF723F806B0BDE8F04DFFF729
:10138000BABF7A48824542DABAF1795F0BDA284669
:10139000FFF743FF042808BFFFF7B4FF284606B055
:1013A0002146BDE8F08D2A460B46104603F0AEF903
:1013B000834602466E480E460B4606217844FFF7E8
:1013C00040FF5A46334603F0A1F9804669488A46F1
:1013D0005A46334604217844FFF733FF5A463346D2
:1013E00003F094F900223B4602F088FF02460B46C8
:1013F0004046514603F032F82A46234603F086F968
:1014000006B02A462346BDE8F04D02F077BF2846D5
:1014100024F0004100223D463B4603F075FA4FF0B0
:10142000FF3203F078FF0646024653480F460B464C
:1014300006217844FFF705FF32463B4603F066F984
:10144000CDE900014D4832463B4604217844FFF780
:10145000F8FE32463B4603F059F900222B4602F0D3
:101460004DFF834602913046394602F089FE8046A0
:1014700043480D46504517DCDDE900015A46029B02
:1014800002F0ECFF42462B4603F040F942462B4661
:1014900002F034FF012203F03EFF304A304B03F0EC
:1014A00025FB304A304B4CE04FF0000A52460B46C9
:1014B000404602F023FFCDE9031052462B4610466A
:1014C000194603F023F932463B4603F01DFADDE9E5
:1014D000033202F0C3FF06460F46DDE900015A461B
:1014E000029B02F0BBFF8346009101223046394641
:1014F00003F011FF194A1A4B03F006FA06460F468D
:1015000001224046294603F006FF5A46009B03F09D
:10151000FDF832463B4603F0E9FA06460F46012243
:101520005046294603F0F7FE0E4DDFF858802A4654
:10153000434603F0E9F932463B4603F0E5F92A4613
:10154000434603F0E1F9002CD8BF81F0004106B01A
:10155000BDE8F08D0000F03F0000F07F075C143321
:1015600026A6913C182D4454FB21F93F0000E03F92
:10157000404C0000564C0000CA4B0000E04B0000FD
:101580003333EF3FFB21E93F2DE9F84F04460D4689
:1015900021F0004000917349814211DC7249884278
:1015A00001DC06D12CB120462946BDE8F84FFFF7F3
:1015B0009DBE6E48002DCCBF6D496E49BDE8F88FC9
:1015C0006D49814211DD6D498142D8BF4FF0FF3630
:1015D0006DDD20462946FFF720FE042808BFFFF7EF
:1015E00091FE20462946BDE8F88F6549654F25F0F4
:1015F0000045814233DD6449814219DD00263246CF
:101600004FF080432046294602F078FE80468A4605
:1016100001222046294603F07EFE00223B4603F0CD
:1016200065FA4246534602F019FF04460D463EE075
:1016300001260022BA463B462046294602F05EFEBD
:1016400080460F46002253462046294603F04EFAB4
:1016500042463B4602F002FF04460D4627E04B4956
:1016600081421BDDDFF828A10226002253462046D6
:10167000294603F04BF800223B4602F03FFE80462D
:101680000F46002253462046294603F02FFA4246D1
:101690003B4602F0E3FE04460D4608E003262246E0
:1016A0002B4600203B4902F0D9FE04460D46224657
:1016B0002B461046194603F029F88B46824602460F
:1016C0000B4603F023F807460246334888460B468C
:1016D00006217844FFF7B5FD52465B4603F016F845
:1016E00082462E488B463A46434605217844FFF70A
:1016F000A8FD3A46434603F009F802460B46002E81
:10170000504659460CDA02F0F9FD22462B4602F00B
:10171000FDFF01B022462B46BDE8F04F03F0F4B8C0
:1017200002F0ECFD22462B4602F0F0FF1C4A7A4400
:1017300002EBC603D3E9002303F0D8F922462B4677
:1017400003F0D4F9174A7A4402EBC603D3E9002325
:1017500003F0DAF8009A002AB8BF81F00041BDE832
:10176000F88F0000000010440000F07F182D445452
:10177000FB21F93FFB21F9BF0000DC3F0000203EC8
:101780000000F33F0000F03F0000E63F0080034010
:101790000000F83F0000F0BFE2490000A04900004F
:1017A0003E490000064900002DE9F04D9446CCF179
:1017B000000423F000464CEA0404524F46EAD47475
:1017C0009A46884621F00042BC4206D8454240EA8B
:1017D000050442EAD474BC4204D9BDE8F04D624627
:1017E000FFF787BDAAF14055A5F17F6555EA0C04C6
:1017F0000BD0022404EAAA74434DDFF810E144EA56
:10180000D87452EA000B04D00CE0BDE8F04DFFF7AD
:10181000BBBE002C14BF012CBDE8F08D022C30D0D3
:10182000032C32D056EA0C0B0AD0BE4220D1BA4269
:1018300009D126F0804622F080423346114617E057
:1018400000291ADB25E0DFF8C8B0FB44002C04BFF8
:10185000DBE90001BDE8F08D012C02BFDBE90001EE
:1018600081F00041BDE8F08D022C0AD0032C0CD091
:10187000BA4212D1B8F1000F0BDA23482549BDE86E
:10188000F08D28462449BDE8F08D28467146BDE814
:10189000F08D1D482149BDE8F08D921B12153C2AA0
:1018A000C4BF19481D490EDCBAF1000FBEBF12F1CA
:1018B0003C0F0020014606DB624602F0CFFD21F01E
:1018C0000041FFF761FE002C08BFBDE8F08D012C40
:1018D00004BF81F00041BDE8F08D114A114B022C8C
:1018E00007D003F003F92A46BDE8F04D0A4B03F098
:1018F000FDB803F0FBF82A46BDE8F04D064B03F0B7
:1019000003B800000000F07F182D4454FB2109C0EB
:101910009A480000FB21F9BFFB210940FB21F93F58
:10192000075C143326A6A13C2DE9F0410446E0787B
:1019300000F0C006E07800F03F05607800F001009C
:1019400098B1EF102846E91705EB5171C910A5EBC6
:10195000C101491C01F0FF080B48006820B10A488A
:10196000414602683846904700BF607800F00800A2
:1019700030B10548406818B1B011034A5168884732
:101980000020BDE8F08100005C01002010B56FF080
:101990000400FFF72FFA0A4800680A49B0FBF1F08B
:1019A000094908700846007800EB4001C1EBC010FF
:1019B0004FF6FF7101EAC0000449088010BD000025
:1019C0000C00002000127A002000002022000020DD
:1019D0000146114A12884A434FF0E0235A6100221F
:1019E0009A611A46126942F001021A6100BF4FF073
:1019F000E022106900F001021AB100F48032002ADE
:101A0000F5D04FF0E022126922F001024FF0E023FE
:101A10001A6100229A617047220000200146114A93
:101A200012784A434FF0E0235A6100229A611A4625
:101A3000126942F001021A6100BF4FF0E022106902
:101A400000F001021AB100F48032002AF5D04FF004
:101A5000E022126922F001024FF0E0231A61002215
:101A60009A6170472000002038B5044664B12020F8
:101A70008DF8000028208DF8010030208DF802003C
:101A800038208DF8030004E0A32204216846FEF705
:101A90000EFC6A46042140F69E2002F083F901F014
:101AA0001DFD38BD3EB5044602208DF80000CA2059
:101AB0008DF80100E3208DF8020009208DF8030065
:101AC0006A460421682002F06DF9A3208DF8000019
:101AD00004F0400048B1C0208DF80100C8208DF806
:101AE0000200C2208DF8030006E0A3208DF801005B
:101AF0008DF802008DF8030004F4C07048B1C420D2
:101B00008DF80400CC208DF80500C6208DF8060065
:101B100006E0A3208DF804008DF805008DF806007E
:101B2000A3208DF807008DF808008DF809006A469B
:101B30000A2140F6A72002F035F904F0030018B19D
:101B400020208DF8000002E0D8208DF800006A46C1
:101B5000012140F6B62002F025F904F0200018B16A
:101B6000012000F0ADF802E0002000F0A9F804F434
:101B7000C07008B304F4807060B1B2208DF800002A
:101B80008B208DF80100B6208DF802009B208DF887
:101B900003000BE0B0208DF8000080208DF80100DC
:101BA000B4208DF8020090208DF803006A460421CD
:101BB00040F6A22002F0F6F804F0010020B3F8206D
:101BC0008DF800006A4601214FF40B6002F0EAF83C
:101BD000FA21072000F02CFC072000F0F3FB012085
:101BE00000F013FC642000F0F3FC4FF4FA7000F0F6
:101BF00002FDC821304800F0A3FB282000F0BCFB08
:101C00000A2000F0CCFB08E0D8208DF800006A46DE
:101C100001214FF40B6002F0C5F804F0020018B186
:101C2000D9208DF8000002E0D8208DF800006A4627
:101C3000012140F23D7002F0B5F804F0040018B143
:101C4000012000F069F802E0002000F065F804F0DF
:101C5000100018B10120FFF707FF02E00020FFF796
:101C600003FF44F008001549488101F037FC0020CB
:101C70001249887304F0400018B10846807B801D2B
:101C8000887304F4C07020B10C48807B801D0B4920
:101C9000887304F0140020B10848807B1030074995
:101CA000887304F0030020B10448807B001D0349C1
:101CB000887300203EBD000009E3CA025C010020D9
:101CC0003EB504466CB10EA1D1E900208968CDE98A
:101CD000002002916A4609214FF4976002F062F8F1
:101CE0003EBD0AA2D2E900109268CDE9010200913E
:101CF0006A4609214FF4976002F054F8F0E70000BB
:101D0000B8AAB38DB4980D355D000000B8AAAAAA90
:101D1000B088C3C5C700000038B5044664B1C02010
:101D20008DF80000C2208DF80100C4208DF802005B
:101D3000C6208DF8030004E08B2204216846FEF7DC
:101D4000B6FA6A46042140F6982002F02BF801F01A
:101D5000C5FB38BD10B5C8234FF48062024940F678
:101D6000F63001F031FA10BD045400082DE9F04FAF
:101D70008DB00746884615469946DDE9166B002466
:101D8000002030806B49887B5A4605A901F006FB8C
:101D900018B1601E0DB0BDE8F08F6648807A00F083
:101DA0001400002867D09DF8140000069DF8151057
:101DB00040EA01409DF8161040EA01209DF81710F6
:101DC000084328609DF8180000069DF8191040EAA5
:101DD00001409DF81A1040EA01209DF81B100843AD
:101DE00068609DF81C0000069DF81D1040EA014047
:101DF0009DF81E1040EA01209DF81F100843A860BE
:101E00009DF8200000069DF8211040EA01409DF851
:101E1000221040EA01209DF823100843E86004F1F5
:101E20001000C4B228680014019068680014029081
:101E3000A86800140390E8680014049001984043D7
:101E4000029901FB0100039901FB0100049901FBC8
:101E5000010ABAF1706F02DBBAF1885F05DD01F0AB
:101E60003DFB00203080401E94E7B6F9000040F4AE
:101E70008070308000BF2F48807A00F0400020B38F
:101E800005A9601C085C095D40EA012000B2A8F8C1
:101E9000000005A9E01C095C05AAA01C105C41EA31
:101EA000002000B2A8F8020005A9601D095C201DF1
:101EB000105C41EA002000B2A8F80400A01DC4B2E2
:101EC000B6F9000040F0080030801A48408900F45C
:101ED000C07008B305A9601C085C095D40EA0120D8
:101EE00000B2388005A9E01C095C05AAA01C105CA2
:101EF00041EA002000B2788005A9601D095C201D20
:101F0000105C41EA002000B2B880A01DC4B2B6F94E
:101F1000000040F0700030800648807A00F0030036
:101F200018B105A90819FFF7FFFC484600F0A6FF05
:101F300000202FE75C01002070B588B0064601A89C
:101F400000F0FCFFBDF804000021C90341EA504540
:101F5000C4034448007A00F0030056F820000590BE
:101F60004048007A00F0040010B105984042059006
:101F70003C48007AC0F3C10056F82000069039486A
:101F8000007A00F0200010B10698404206903548D3
:101F9000007AC0F3811056F820000790314800897C
:101FA00000F4807010B10798404207900598C1175F
:101FB000A0FB042301FB043100FB0510810041EA72
:101FC000927005900698C117A0FB042301FB043111
:101FD00000FB0510810041EA927006900798C11736
:101FE000A0FB042301FB043100FB0510810041EA42
:101FF000927007900598000E8DF808000598000C67
:102000008DF809000598000A8DF80A000598C0B2FD
:102010008DF80B000698000E8DF80C000698000C49
:102020008DF80D000698000A8DF80E000698C0B2D3
:102030008DF80F000798000E8DF810000798000C1F
:102040008DF811000798000A8DF812000798C0B2A9
:102050008DF8130002AA0C214FF4257001F0A2FEA6
:1020600008B070BD5C01002030B585B0044616A2F2
:1020700007CA02AB07C3C82C03DD4FF0FF3005B021
:1020800030BDC82090FBF4F0401E85B2280A8DF8C0
:102090000000E8B28DF801006A46022140F21620E5
:1020A00001F080FE10B14FF0FF30E8E702AA0C21EA
:1020B00040F6C12001F076FE10B14FF0FF30DEE7B0
:1020C000044884810020DAE7FEF2ABC4AAF1DFDF26
:1020D000BBAFDFDF5C0100201FB504464848007A33
:1020E00000F0030054F8200001904548007A00F009
:1020F000040010B10198404201904148007AC0F3B9
:10210000C10054F8200002903D48007A00F0200001
:1021100010B10298404202903948007AC0F3811011
:1021200054F8200003903648008900F4807010B104
:102130000398404203903349019880FB0101800FCE
:1021400040EA810001902F49029880FB0110820033
:1021500042EA917002902B49039880FB01108200A3
:1021600042EA917003900198000E8DF800000198EA
:10217000000C8DF801000198000A8DF8020001980A
:10218000C0B28DF803006A4604214FF4747001F068
:1021900009FE18B14FF0FF3004B010BD0298000ED8
:1021A0008DF800000298000C8DF801000298000ADA
:1021B0008DF802000298C0B28DF803006A4604212F
:1021C0004FF4757001F0EEFD10B14FF0FF30E3E712
:1021D0000398000E8DF800000398000C8DF80100A4
:1021E0000398000A8DF802000398C0B28DF803002E
:1021F0006A4604214FF4767001F0D4FDCCE700006C
:102200005C01002009E3CA0210B586B0044647A06D
:102210000068039046A00068029046A00068019004
:1022200045A00068009004F0030003A9085C8DF845
:10223000140003A8C4F3C101405C8DF8150003A885
:10224000C4F38111405C8DF8160004F0030002A96C
:10225000085C8DF8100002A8C4F3C101405C8DF841
:10226000110002A8C4F38111405C8DF8120005AA88
:10227000032140F2264001F095FD18B14FF0FF30E8
:1022800006B010BD04AA032140F22A4001F08AFDE5
:1022900010B14FF0FF30F3E70198059000980490DB
:1022A00004F0040058B19DF8140040F001008DF8CE
:1022B00014009DF8100040F001008DF8100004F0AB
:1022C000200058B19DF8150040F001008DF8150070
:1022D0009DF8110040F001008DF8110004F48070A9
:1022E00058B19DF8160040F001008DF816009DF8D9
:1022F000120040F001008DF8120005AA03214FF4EE
:10230000886001F04FFD10B14FF0FF30B8E704AA2C
:10231000032140F2314001F045FD10B14FF0FF3094
:10232000AEE7064804810020AAE700004CCD6C000F
:102330000CC92C0036567600264666005C0100204B
:10234000F8B505460E464FF47A7095FBF0F000FBA9
:1023500006F4200E8DF80000200C8DF80100200AF4
:102360008DF80200E0B28DF803006A4604214FF4B4
:10237000AE7001F017FDF8BD38B50446052094FB9A
:10238000F0F084B220128DF80000E0B28DF8010068
:102390006A4602214FF4AD7001F004FD38BD38B536
:1023A0000446052094FBF0F084B220128DF8000062
:1023B000E0B28DF801006A4602214FF4AC7001F0E2
:1023C000F1FC38BD38B504460020009004F001004F
:1023D00020B19DF8000040F03000009004F00200B1
:1023E00020B19DF8000040F00C00009004F00400C3
:1023F00020B19DF8000040F0030000906A460121E2
:102400004FF4A47001F0CEFC38BD38B50446012C61
:1024100001DA012402E0042C00DD0424601EC0B2B5
:1024200000906A46012140F24F1001F0BBFC38BD1C
:102430002DE9FC4706460F4606F0070010B1B7F538
:10244000C86F03DD4FF0FF30BDE8FC87384602F06F
:10245000DBFD8146594902F0C1FC8046684600F028
:1024600047FD9DF80000022806D0042816D0082851
:1024700026D0102848D135E04FF08D41404602F07B
:10248000D7FD814602F088FD84B24D49404602F0F6
:10249000CFFD814602F080FD85B238E04FF08C41DF
:1024A000404602F0C5FD814602F076FD84B2454902
:1024B000404602F0BDFD814602F06EFD85B226E089
:1024C0004FF08B41404602F0B3FD814602F064FDBF
:1024D00084B23D49404602F0ABFD814602F05CFD0E
:1024E00085B214E04FF08A41404602F0A1FD8146DA
:1024F00002F052FD84B23549404602F099FD814612
:1025000002F04AFD85B202E04FF0FF309CE700BFC9
:1025100020128DF80400E0B28DF8050028128DF825
:102520000600E8B28DF8070006F00100A0B101AA8C
:1025300002214FF4EA7001F035FC10B14FF0FF308A
:1025400082E70DF1060202214FF4927001F02AFC9D
:1025500010B14FF0FF3077E706F00200A0B101AAFA
:1025600002214FF4EC7001F01DFC10B14FF0FF3070
:102570006AE70DF1060202214FF4947001F012FC9B
:1025800010B14FF0FF305FE706F00400A0B101AAE0
:1025900002214FF4EE7001F005FC10B14FF0FF3056
:1025A00052E70DF1060202214FF4967001F0FAFB9A
:1025B00010B14FF0FF3047E7002045E700004843E7
:1025C000000040460000C045000040450000C044F7
:1025D00038B50446052094FBF0F085B228128DF83A
:1025E0000000E8B28DF801006A4602214FF4EF7056
:1025F00001F0D8FB38BD38B50446052094FBF0F057
:1026000085B228128DF80000E8B28DF801006A4604
:1026100002214FF4ED7001F0C5FB38BD2DE9F04FFC
:1026200087B005460C46914601208DF81000002029
:102630008DF81100FE4A1268517DFD4A52681078EB
:1026400004AB0222FEF768FA20B14FF0FF3007B06A
:10265000BDE8F08FC820FFF7BBF900208DF810000F
:10266000F34A1268517CF24A5268107804AB012296
:10267000FEF752FA10B14FF0FF30E8E7EC4A12686B
:102680005179EB4A5268107804AB0122FEF744FA04
:1026900010B14FF0FF30DAE7E54A1268517DE44AA5
:1026A0005268107804AB0122FEF736FA10B14FF0F1
:1026B000FF30CCE7DE4A1268917EDD4A526810781E
:1026C00004AB0122FEF728FA10B14FF0FF30BEE74D
:1026D000D74A12681179D64A5268107804AB0122A1
:1026E000FEF71AFA10B14FF0FF30B0E70C208DF86A
:1026F0001000CF4A12681179CD4A5268107804ABA5
:102700000122FEF709FA10B14FF0FF309FE70F20CA
:10271000FFF75EF9C648406B407A8DF81000C44A56
:1027200012689178C24A5268107804AB0122FEF711
:10273000F3F910B14FF0FF3089E7BD48406B007AE4
:102740008DF81000BA4A12685178B94A5268107868
:1027500004AB0122FEF7E0F910B14FF0FF3076E74D
:10276000B9F1000F07D0B248406B807A40F0E0002A
:102770008DF8100004E0AE48406B807A8DF81000B0
:10278000AB4A12689179AA4A5268107804AB0122C8
:10279000FEF7C2F910B14FF0FF3058E7B9F1000F62
:1027A00007D0A348406BC07A40F0E0008DF81000DD
:1027B00003E0A048C07A8DF810009D4A1268D179D4
:1027C0009B4A5268107804AB0122FEF7A5F910B1BC
:1027D0004FF0FF303BE7B9F1000F02D0C820FFF700
:1027E000F7F840208DF81000914A12681179904A4C
:1027F0005268107804AB0122FEF78EF910B14FF049
:10280000FF3024E778208DF81000894A126851794A
:10281000874A5268107804AB0122FEF77DF910B1A7
:102820004FF0FF3013E783498889FFF7D1F8002084
:102830008DF810007E4A126851797D4A52681078EE
:1028400004AB0122FEF768F910B14FF0FF30FEE64D
:10285000774A1268117B764A5268107804AB0222DC
:10286000FEF7ACF810B14FF0FF30F0E69DF8110024
:102870009DF8101040EA012B0C209BFBF0F0C6B233
:102880000020A86068602860A060606020608246C8
:1028900065E0674A1268517B654A5268107804AB5C
:1028A0000C22FEF78BF810B14FF0FF30CFE69DF809
:1028B00011009DF8101040EA012000B2ADF80800A8
:1028C0009DF813009DF8121040EA012000B2ADF807
:1028D0000A009DF815009DF8141040EA012000B28E
:1028E000ADF80C00BDF90810206808442060BDF95F
:1028F0000A10606808446060BDF90C10A0680844C4
:10290000A0609DF817009DF8161040EA012000B263
:10291000ADF800009DF819009DF8181040EA01205C
:1029200000B2ADF802009DF81B009DF81A1040EAB5
:10293000012000B2ADF80400BDF900102868084479
:102940002860BDF90210686808446860BDF9041089
:10295000A8680844A8600AF1010000F0FF0AB24527
:1029600097DB3448D0F800C02868C117090441EA51
:1029700010410704624600233846FDF748FC324602
:102980000023CDE90201FDF742FC28602948D0F878
:1029900000C06868C117090441EA10410704624693
:1029A00000233846FDF733FC32460023CDE902010F
:1029B000FDF72DFC68601F48D0F800C0A868C1175B
:1029C000090441EA10410704624600233846FDF736
:1029D0001EFC32460023CDE90201FDF718FCA86079
:1029E0001448D0F804C02168C817000440EA114810
:1029F0000F046246002338464146FDF708FC324684
:102A00000023CDE90201FDF702FC20600948D0F85F
:102A100004C06068C117090441EA10410704624616
:102A200000233846FDF7F3FB3246002304E00000A4
:102A300040000020DC530008CDE90201FDF7E7FB70
:102A400060601148D0F804C0A068C117090441EAC9
:102A500010410704624600233846FDF7D8FB324692
:102A60000023CDE90201FDF7D2FBA060A068002899
:102A700004DDA068A0F58030A06003E0A06800F548
:102A80008030A0600020E2E5DC53000870B5054608
:102A9000284600F00FF80446E81C00F00BF844EA62
:102AA000C00084B2A81D00F005F844EA801084B28A
:102AB000204670BD014691F90020002A01DD00206A
:102AC0001EE091F90020002A01DA042018E091F9B3
:102AD0000120002A01DD012012E091F90120002AE5
:102AE00001DA05200CE091F90220002A01DD022024
:102AF00006E091F90220002A01DA062000E0072012
:102B0000704700009AB04FF07E544FF000094FF02C
:102B1000000A4FF0000B5520D0490870AA204876D3
:102B2000FEF734FFFDF78CFE4FF4612001F04EFB01
:102B3000FDF7A6FE00BF00F0B5FA0028FBD1782013
:102B400001F07CF8782000F09BF9C82001F01CF817
:102B5000FFF700F9C248FFF799FF0546FFF754FB5E
:102B600040F27310FEF79EFFC820FFF77DFA01F0D8
:102B700059F9012000F004FF0020BA490860BA4961
:102B8000C1F88401472140F2CF70FEF787F964E174
:102B900012A813A918AB0EAACDE9001014A916A803
:102BA000FFF7E4F8BDF84C0000F4807000287CD0FA
:102BB0000E9802F011FA05464FF09D4102F00EF911
:102BC00004460F9802F008FA05464FF09D4102F0C6
:102BD00005F98146109802F0FFF905464FF09D4136
:102BE00002F0FCF88246119802F0F6F905464FF023
:102BF0009D4102F0F3F8834621464FF0804002F0F9
:102C000017FA5146069002F013FA494608904FF021
:102C1000404002F00DFA5946069002F009FA07907A
:102C2000089902F079F8099002F04AF8CDE90A0112
:102C3000FEF772FB07464FF000528C4B01F066FD29
:102C4000054601F029FB8549C1F8050051464FF0C2
:102C5000804002F0EDF95146039002F0E9F9074691
:102C600049464FF0404002F0E3F94946039002F034
:102C7000DFF98046394602F0A7FA06464FF07E514A
:102C800002F04AF8054602F01BF8CDE9060121469C
:102C90004FF0804002F0CCF98046494602F0C8F976
:102CA000064651464FF0804000E06CE002F0C0F96B
:102CB0008046594602F0BCF90746314602F02CF82E
:102CC000054601F0FDFFCDE90401DDE90623FEF72D
:102CD0006BFD4FF00052654BCDE9080101F016FD88
:102CE000CDE90A0101F0D8FA5C49C1F8090059465A
:102CF000584602F09DF951460590504602F098F969
:102D000049460390484602F093F921460290204636
:102D100002F08EF90190029901F0FEFF80460399BE
:102D200002F052FA0490059902F04EFA074601F0BB
:102D3000C7FFCDE906015946204602F079F9514610
:102D40000590484602F074F90490059901F0E4FFFB
:102D500080464FF0804102F06BF9074601F0B0FF6A
:102D60000546DDE90623FEF71FFD4FF000523F4BFD
:102D7000CDE9080101F0CAFCCDE90A0101F08CFAA5
:102D80003649C1F80100BDF84C0000F07000002881
:102D90005FD0BDF9300002F01FF98046344902F0DF
:102DA00047F90646BDF9580002F016F98046314948
:102DB00002F03EF90746314601F0AEFF05462E49C6
:102DC00002F036F92549C1F81500BDF9320002F0CC
:102DD00003F98046264902F02BF90646BDF95A0050
:102DE00002F0FAF88046234902F022F907463146FC
:102DF00001F092FF0546204902F01AF91749C1F87F
:102E00001100BDF9340002F0E7F88046184902F0DD
:102E10000FF90646BDF95C0002F0DEF88046154960
:102E200002F006F90746314601F076FF05461249E1
:102E300002F0FEF80949C1F80D00BDF85800ADF8E0
:102E40003000BDF85A00ADF83200BDF85C00ADF8B6
:102E500034001A21014801F009FA99E678000020AF
:102E6000000000208081214200802142DCA54C40EE
:102E70009A99593F9A99193E0000FA3C7047000010
:102E800070B50446002624F00104184890F8240088
:102E900008B1002070BD1548807A10B94FF0FF309E
:102EA000F8E71248057C807A2040104908740846EB
:102EB000007CA04202D04FF0FF3600E0002614B99B
:102EC0000A48007D18B1012000F0F4FF02E0002064
:102ED00000F0F0FF3CB100F001FB20B103480574A5
:102EE0004FF0FF30D6E73046D4E700004000002026
:102EF00001461148407A30B1012807D0022808D095
:102F000003280CD108E0022008700BE004200870B0
:102F100008E00820087005E01020087002E04FF07B
:102F2000FF30704700BF0448C07C18B108784006E5
:102F3000000E08700020F4E740000020014613480E
:102F4000407A30B1012808D002280AD0032810D1D5
:102F50000BE04FF4804008800EE041F69C70088042
:102F60000AE04FF48050088006E04FF400600880CB
:102F700002E04FF0FF30704700BF0448C07C10B142
:102F80000888401008800020F5E70000400000207D
:102F900001460248007C0870002070474000002075
:102FA00001460F48007A30B1012807D0022809D025
:102FB00003280FD10AE0FA2008800EE04FF4FA70DF
:102FC00008800AE04FF47A70088006E04FF4FA6057
:102FD000088002E00020088000BF00BF002070478A
:102FE0004000002001460E48007A30B1012807D089
:102FF000022808D003280CD108E00A4808600BE03A
:103000000948086008E00948086005E008480860C9
:1030100002E04FF0FF30704700BF0020FBE70000E8
:10302000400000200000034300008342333303428A
:103030003333834101461248C07A082817D2DFE8AB
:1030400000F01704070A0D101318BC20088013E0C5
:103050006220088010E02A2008800DE014200880FB
:103060000AE00A20088007E00520088004E000BF8D
:1030700000BF0020088000BF00BF00207047000094
:10308000400000200146064890F8240010B14FF09F
:10309000FF3070470248C08908800020F9E700002F
:1030A000400000201CB580208DF80000454A1268C1
:1030B000517D444A526810786B460122FDF72CFD81
:1030C00010B14FF0FF301CBD6420FEF781FC0020E2
:1030D0008DF800003B4A1268517D3A4A52681078D8
:1030E0006B460122FDF718FD10B14FF0FF30EAE703
:1030F00048208DF80000334A1268117A314A52682C
:1031000010786B460122FDF707FD10B14FF0FF303C
:10311000D9E7FF212B488172FF202A490872FF213D
:1031200028484172C1724FF6FF71C181FF210174BD
:1031300081744FF6FF7101850121017380F822101F
:10314000002180F82310417501751630016041603F
:103150008160163880F8241080F82510C1844FF45F
:10316000FA6000F055FC10B14FF0FF30ABE70220E1
:1031700000F0EEFA10B14FF0FF30A4E72A2000F083
:10318000C1FC10B14FF0FF309DE7322000F0FCFC95
:1031900010B14FF0FF3096E70020FFF771FE10B13D
:1031A0004FF0FF308FE700F0CDFE0A2000F0B8FBB3
:1031B00010B14FF0FF3086E7002000F03FFD002007
:1031C00081E70000400000202DE9F04385B005466E
:1031D0000E4690469946294890F8250020B14FF0B8
:1031E000FF3005B0BDE8F08316B94FF0FF30F8E7C7
:1031F000002423E0281B102801DD102000E0281BFC
:1032000087B232193946204600F0CCFD10B14FF09C
:10321000FF30E6E701AA3946204600F01FF910B159
:103220004FF0FF30DDE730193A4601A9FDF713F8FA
:1032300010B16FF00100D4E7E01984B2AC42D9DBE1
:103240004FEA28208DF8000008F0FF008DF80100FB
:103250000A4A1268517F094A526810786B46022266
:10326000FDF75AFC10B14FF0FF30BAE701210348D7
:1032700080F82510A0F826900020B2E7400000203A
:1032800038B50446282C02DD4FF0FF3038BDDCB9DC
:10329000002000F001FC00208DF8000007208DF8D0
:1032A00001003D4A1268517D3B4A526810786B46D6
:1032B0000222FDF731FC10B14FF0FF30E6E70021AC
:1032C000354801750020E1E7012000F0E5FB012C05
:1032D00003D102208DF8000033E0022C03D103203B
:1032E0008DF800002DE0052C03DC04208DF8000093
:1032F00027E00A2C03DC05208DF8000021E0142CC7
:1033000003DC06208DF800001BE0282C03DC0720DE
:103310008DF8000015E0502C03DC08208DF800002B
:103320000FE0A02C03DC09208DF8000009E0B4F5C3
:10333000A07F03DC0A208DF8000002E00B208DF84E
:103340000000154A1268517A134A526810786B4689
:103350000122FDF7E1FB10B14FF0FF3096E720208E
:103360008DF800000C4A1268517D0B4A52681078A3
:103370006B460122FDF7D0FB10B14FF0FF3085E71F
:103380000821054881720021017301210175002087
:10339000FFF776FD002079E740000020F8B50446ED
:1033A0000F4616462C4890F8240010B94FF0FF3015
:1033B000F8BD2948807A10B94FF0FF30F8E7264A67
:1033C0001268117B244A526810786B460222FDF77E
:1033D000F5FA10B14FF0FF30EAE79DF801009DF8D3
:1033E000001040EA0125A54203DA00203070401E9B
:1033F000DEE7194840684088B5EB600F17DD164AD4
:103400001268D17C144A526810786B460122FDF78D
:10341000D5FA10B14FF0FF30CAE79DF8000000F078
:10342000100020B100F05AF86FF00100C0E7E2B2DE
:10343000094B1B68597B084B5B6818783B46FDF7C6
:10344000BDFA10B14FF0FF30B2E795FBF4F0401E2B
:1034500030700020ACE7000040000020F8B50446C2
:103460000D46164616B94FF0FF30F8BD1A48807A5F
:1034700010B94FF0FF30F8E720128DF80000E0B2ED
:103480008DF801009DF801002844134949684989D5
:10349000884202DD4FF0FF30E7E70F4A1268D17E25
:1034A0000D4A526810786B460222FDF735FB10B1C9
:1034B0004FF0FF30D9E7EAB2074B1B68197E064B85
:1034C0005B6818783346FDF779FA10B14FF0FF309A
:1034D000CBE70020C9E700004000002008B5704895
:1034E000807A10B94FF0FF3008BD002000906C4A80
:1034F0001268517C6A4A526810786B460122FDF7C7
:103500000BFB10B14FF0FF30EEE7654A12685179BE
:10351000634A526810786B460122FDF7FDFA10B13C
:103520004FF0FF30E0E75E4A126811795C4A52685A
:1035300010786B460122FDF7EFFA10B14FF0FF3023
:10354000D2E7574890F82400002853D00C20009070
:10355000534A12681179524A526810786B46012218
:10356000FDF7DAFA10B14FF0FF30BDE73220FEF779
:103570002FFAC02000904A48807A00F0010020B164
:103580009DF8000040F020000090454A1268117933
:10359000434A526810786B460122FDF7BDFA10B11C
:1035A0004FF0FF30A0E73E48407C10B10220009071
:1035B00001E0002000903A4A1268517C384A526873
:1035C00010786B460122FDF7A7FA10B14FF0FF30DB
:1035D0008AE700200090324A12685179304A5268D6
:1035E00010786B460122FDF797FA002855D04FF06E
:1035F000FF3079E704200090294A12681179284A9F
:10360000526810786B460122FDF786FA10B14FF030
:10361000FF3069E72248807C20B92148807A00F099
:10362000010010B94020009001E0602000901C4A89
:10363000126811791A4A526810786B460122FDF718
:103640006BFA10B14FF0FF304EE73220FEF7C0F9B1
:103650001348407C10B10120009001E00020009050
:103660000F4A1268517C0E4A526810786B4601224C
:10367000FDF752FA10B14FF0FF3035E7084A1268F3
:103680005179074A52681078054B10330122FDF733
:1036900043FA10B14FF0FF3026E7002024E7000086
:1036A000400000202DE9F04186B0074688462748B3
:1036B00090F8240020B1002000F062F9012400E01D
:1036C000002403A8FFF76CFC05A8FFF711FC01A874
:1036D000FFF7B0FC02A8FFF7D5FC1C48867A04A8C7
:1036E000FFF756FC002241463846FEF797FF0725B4
:1036F000FF2016490872FF2114484172C1724FF62B
:10370000FF71C181FF218172017401210173BDF834
:103710000C0000F07DF99DF8140000F019F8BDF8D8
:10372000040000F0EFF9BDF8080000F02DFA304673
:1037300000F084FA9DF81000FFF7A2FB14B10120FD
:1037400000F01EF9284606B0BDE8F08140000020D8
:1037500038B504461E48807A10B94FF0FF3038BDA6
:10376000022C06D0042C07D0082C08D0102C0CD129
:1037700008E0002000900BE00820009008E01020F6
:10378000009005E01820009002E04FF0FF30E6E7DF
:1037900000BF0F48407A9DF80010B0EBE10F01D157
:1037A0000020DCE70A4A1268D179094A5268107889
:1037B0006B460122FDF7B0F910B14FF0FF30CEE7B4
:1037C0009DF80000C110024841720020C7E70000C8
:1037D0004000002038B504465048807CA04201D10A
:1037E000002038BD002C46D04C4A126811794B4A53
:1037F000526810786B460122FDF7E0F810B14FF0E7
:10380000FF30EEE79DF8000020F020000090434AD2
:1038100012681179414A526810786B460122FDF70F
:103820007BF910B14FF0FF30DBE70320FEF7D0F853
:1038300002200090394890F8220020B19DF8000045
:1038400040F080000090354890F8230020B19DF8AA
:10385000000040F030000090304A1268D17D2F4ABD
:10386000526810786B460122FDF756F9002851D0B6
:103870004FF0FF30B5E7294A12681179274A52689C
:1038800010786B460122FDF799F810B14FF0FF3028
:10389000A7E72248807A00F0010028B19DF80000D7
:1038A00040F02000009004E09DF8000020F020008F
:1038B00000901A4A12681179184A526810786B46BB
:1038C0000122FDF729F910B14FF0FF3089E70320FD
:1038D000FEF77EF8114890F8220010B18020009089
:1038E00001E0002000900D4890F8230020B19DF8E1
:1038F000000040F030000090084A1268D17D074A6D
:10390000526810786B460122FDF706F910B14FF0AE
:10391000FF3066E701488474002062E74000002021
:1039200038B504462CB11548C089A04201DB642C8F
:1039300002DD4FF0FF3038BD1048C08990FBF4F035
:10394000401EC0B200900D4A126892F824100B4A33
:10395000526810786B460122FDF7DEF810B14FF087
:10396000FF30E8E70548C1899DF80000401C91FB45
:10397000F0F081B2014801850020DCE74000002022
:1039800038B50446214890F82400A04201D1002017
:1039900038BD24B31D4890F8250010B94FF0FF3012
:1039A000F6E7002000F086FA0020FFF713FF174922
:1039B000C88C00F0E9F800200090144949680878A4
:1039C0006B4601222321FDF7A7F801210F4880F85B
:1039D0002410012000F06EFAFFF780FD13E00020B4
:1039E00000F068FA0948007C0090084949680878A6
:1039F0006B4601222321FDF78FF80021034880F850
:103A00002410FFF76BFD0020C2E7000040000020FB
:103A100038B504461F48807A10B94FF0FF3038BDE2
:103A2000FA2C09D0B4F5FA7F09D0B4F57A7F09D021
:103A3000B4F5FA6F0CD108E0002000900BE00820EC
:103A4000009008E01020009005E01820009002E0AF
:103A50004FF0FF30E3E700BF0E48007A9DF80010FA
:103A6000B0EBE10F01D10020D9E70A4A1268917941
:103A7000084A526810786B460122FDF74DF810B1E4
:103A80004FF0FF30CBE79DF80000C01001490872ED
:103A90000020C4E74000002038B50446184890F8DC
:103AA0002300A04201D1002038BD14B13020009085
:103AB00001E0002000901248807C20B19DF80000B9
:103AC00040F0020000900E4890F8220020B19DF8CE
:103AD000000040F080000090094A1268D17D084A39
:103AE000526810786B460122FDF716F810B14FF0BE
:103AF000FF30D9E7024880F823400020D4E70000D7
:103B00004000002038B504461E48807A10B94FF0B6
:103B1000FF3038BDBC2C02DB0120009015E0622C88
:103B200002DB0220009010E02A2C02DB0320009030
:103B30000BE0142C02DB0420009006E00A2C02DBD0
:103B40000520009001E0062000900E48C07A9DF804
:103B50000010884201D10020DBE70A4A1268917800
:103B6000084A526810786B460122FCF7D5FF10B165
:103B70004FF0FF30CDE79DF800100248C1720020E1
:103B8000C7E700004000002038B504462A48807A84
:103B900010B94FF0FF3038BD274890F8240010B11D
:103BA0004FF0FF30F7E72448007D50B134B1282CA6
:103BB00004DCE0B2FFF764FB0020ECE70020FFF735
:103BC0005FFB042C01DA042404E0B4F57A7F01DD04
:103BD0004FF47A744FF47A7090FBF4F0401EC0B248
:103BE0000090154A12685178134A526810786B4653
:103BF0000122FCF791FF10B14FF0FF30CBE79DF8A9
:103C00000000401C4FF47A7191FBF0F081B20A4839
:103C1000C1810146098D642902DA0146098D00E05F
:103C200064210846FFF77CFE0349C9894810FFF765
:103C300069FF0020AFE70000400000201CB50446EB
:103C400004F0700010B10120019005E014B10020D3
:103C5000019001E040200190514A1268517D504A84
:103C60005268107801AB0122FCF756FF20B1002109
:103C70004B488172481E1CBD9DF8040020F0400195
:103C8000474801730020019004F0400020B99DF8DE
:103C9000040040F00400019004F0200020B99DF8D9
:103CA000040040F00200019004F0100020B99DF8DB
:103CB000040040F00100019004F0080020B99DF8D4
:103CC000040040F038000190354A1268917D344A72
:103CD0005268107801AB0122FCF71EFF20B10021D1
:103CE0002F488172481EC6E724B1082C02D000205C
:103CF000FFF7D2FE2A4A12681179294A52681078D1
:103D00006B460122FCF75AFE10B14FF0FF30B2E7CC
:103D100004F0010038B1112001909DF8000040F03E
:103D20002000009006E0102001909DF8000020F097
:103D3000200000901A4890F8240028B19DF8000057
:103D400040F08000009004E09DF8000020F080002A
:103D50000090134A126892F82610114A526810789F
:103D600001AB0122FCF7D8FE10B14FF0FF3082E723
:103D70000B4A126811790A4A526810786B46012280
:103D8000FCF7CAFE10B14FF0FF3074E704488472AC
:103D9000002101753220FDF71BFE00206BE70000BB
:103DA00040000020F8B504460D46164616B94FF0FF
:103DB000FF30F8BD1A48807A10B94FF0FF30F8E7AD
:103DC00020128DF80000E0B28DF801009DF801008E
:103DD0002844134949684989884202DD4FF0FF3081
:103DE000E7E70F4A1268D17E0D4A526810786B4699
:103DF0000222FCF791FE10B14FF0FF30D9E7EAB292
:103E0000074B1B68197E064B5B6818783346FCF736
:103E100083FE10B14FF0FF30CBE70020C9E7000070
:103E20004000002070B588B002A905A8FFF73AFC51
:103E30000446072C3CD101A8FFF7D4F8059801F0FF
:103E4000CBF80646019901F0F3F8054601F088F831
:103E50000590069801F0C0F80646019901F0E8F8CF
:103E6000054601F07DF80690079801F0B5F8064682
:103E7000019901F0DDF8054601F072F8079005A8F8
:103E8000FEF72AF96846FFF759F8BDF800100298C6
:103E900048430290BDF80010039848430390BDF8D2
:103EA000001004984843049002A8FEF745F800BFAC
:103EB00008B070BD38B50446214890F82400C0B160
:103EC00014B10220009001E0002000901C4A12680A
:103ED000517C1B4A526810786B460122FCF71CFE8D
:103EE00010B14FF0FF3038BD9DF8001014484174F8
:103EF00023E01348807A10B94FF0FF30F3E724B184
:103F00000F48407C08B10020EDE714B1012000907B
:103F100001E0002000900A4A1268517C084A526869
:103F200010786B460122FCF7F7FD10B14FF0FF301F
:103F3000D9E79DF80010024841740020D3E7000043
:103F40004000002038B50120FFF744FC0C240EE0AF
:103F50006B46012200212046FCF730FD054625B9BD
:103F60009DF80000482800D103E0601CC4B20F2C6B
:103F7000EEDD00BF0F2C04DD00BF00BF4FF0FF30AF
:103F800038BD7E4880F82A4010208DF800007B491B
:103F900091F82A006B4601220A21FCF7BDFD10B101
:103FA0004FF0FF30ECE70120FDF712FD1F208DF8E8
:103FB0000000724991F82A006B4601220A21FCF7A1
:103FC000ABFD10B14FF0FF30DAE70120FDF700FD47
:103FD0006A4991F82A006B4603221021FCF7EEFC97
:103FE00010B14FF0FF30CBE79DF8000080306349FF
:103FF00088859DF8011080316048C1859DF80210C8
:104000008031018610208DF800005C4991F82A006B
:104010006B4601220A21FCF77FFD10B14FF0FF3003
:10402000AEE70120FDF7D4FC0020FFF7D3FB4020D2
:104030008DF80000514A1268917E504A52681078FB
:104040006B460122FCF768FD10B14FF0FF3097E797
:104050004A4890F82A0040F080008DF80000474A56
:104060001268917F454A526810786B460122FCF72E
:1040700053FD10B14FF0FF3082E702208DF80000B1
:104080003E4A1268D17F3D4A526810786B46012241
:10409000FCF742FD10B14FF0FF3071E788208DF83A
:1040A0000000364A126892F82010344A526810789C
:1040B0006B460122FCF730FD10B14FF0FF305FE797
:1040C0002E4890F82A008DF800002C4A126892F8C9
:1040D00021102A4A526810786B460122FCF71CFD19
:1040E00010B14FF0FF304BE70A208DF80000234A53
:1040F000126892F82210214A526810786B46012209
:10410000FCF70AFD10B14FF0FF3039E781208DF840
:1041100000001A4A126892F82310184A5268107860
:104120006B460122FCF7F8FC10B14FF0FF3027E797
:1041300011208DF80000114A126892F826100F4ADB
:10414000526810786B460122FCF7E6FC10B14FF084
:10415000FF3015E703208DF80000084A126892F836
:104160002710064A526810786B460122FCF7D4FCEF
:1041700010B14FF0FF3003E7002001E740000020BE
:104180002DE9F04106460F4600F0CAFB04000D463B
:1041900018BF0120284320F00040C0F17F6000F1EB
:1041A000E040C00F0ED0301C18BF0120384320F073
:1041B0000040C0F17F6000F1E040C00F04BF01206B
:1041C000FCF7FDF820462946BDE8F08110B586B021
:1041D0000446012144F20400FCF71CFD4FF400707A
:1041E000ADF8140003208DF8160018208DF8170084
:1041F00005A91C48FCF76AF94FF48060ADF814007B
:1042000004208DF8170005A91648FCF75FF9252052
:104210008DF8000003208DF801008DF802000120C8
:104220008DF803006846FCF7ABFC01940020ADF864
:104230000800ADF80A00ADF80C00ADF810000C2035
:10424000ADF80E0001A90848FCF774FF012240F206
:1042500025510548FCF748FF01210348FCF70EFFF4
:1042600006B010BD000801400038014010B50246FC
:1042700000200CE000BF074B1B8803F04003002B1D
:10428000F9D0135C034C241D2380431CD8B2884210
:10429000F0DB10BD0038014021F00042A2F1605275
:1042A000B2F5801F01F0004328BFD2F17F6C0BD91B
:1042B0005FEA001C43EAC20242EB507018BF70472D
:1042C00028BF20F001007047B2F5801FBCBF184620
:1042D00070474FEA410C1CF5001F02D2084600F05F
:1042E0006EBF70B500F0BCFA00000089FFF7F6BFA2
:1042F0004FF00040A0F580007047000010B591EA33
:10430000030F48BF83F0004300F1F883841A71EB78
:10431000030C05D2121943EB0C03001B61EB0C01DB
:10432000DFF824E14FEA1154A4EB135C1EEA430FBB
:1043300018BF9EEA445F73D023EA0E03DCF1200E1F
:1043400021EA045143F4801332D322FA0CFE10EB1D
:104350000E0023FA0CFE41EB0E01CCF1200E03FA05
:104360000EFE10EB0E0051F10001B1F5801FCCF1F3
:10437000200E32D201EB045112FA0EF2BDE81040C9
:1043800058BF7047401C38BF5FEA420218BF7047F1
:10439000002814BF20F0010041F100014FEA410361
:1043A00013F5001F38BF7047A1F1C04100F0A6BA55
:1043B000012A43EB0302ACF1200CDCF11F0E32BFEB
:1043C0004FF0000E23FA0CF310EB030041EB045105
:1043D000B4EB115FD0D0A1EB045101F58011490875
:1043E0005FEA300001EB04510ED350F1000038BFFA
:1043F00012FA0EFE08D1BDE81040C9E7401C38BFD4
:104400005FEA4202CAD1C3E7BDE810404FEA410368
:1044100013F5001F38BF7047A1F1C04100F06EBA1C
:104420009EEA445F08D011EA5E0FBDE8104004BF69
:1044300001F0004100207047BDE8104070B500F069
:104440000FFA00BF64FBBE3E0000E0FF02494FF0E0
:10445000000000F02EBF00BF0000F87F2DE9C04132
:1044600030B4DFF8A0C23CEA111418BF3CEA1314C0
:1044700000F0EC8081EA03051CEA111444EAD574CB
:1044800018BF1CEA131500F0C780A4EB05044FF019
:10449000004545EAC12145EAC32341EA505143EAB8
:1044A000525304F17F74994204F500344FEAC0205E
:1044B0004FEAC22208BF904200F09C804FEA136589
:1044C0000FF24016765D4FEA134506FB05F7C7F17C
:1044D000807706FB07F74FEAD737A7FB03687642DA
:1044E000C8F58038A7FB06CE38BFA8F1010807FB46
:1044F00008E64FF0000EA6FB028CE6FB03CEDCF1D3
:10450000000CCEF1004E38BFAEF1010EA6FB0C58E8
:104510004FF000074FF00005E6FB0E87A1FB08C631
:10452000A0FB07CE16EB0E0645F10005E1FB076583
:1045300015F1E04E7EBFA4F580345FEA46066D417A
:1045400016F1800745F100054FEA17274FEA066686
:1045500047EA0567A6F1DE46B6F1805F4FEA15250A
:104560001FD9384624F0010C05EBC471BCF1FE6F75
:1045700001EB0C1102D8F0BCBDE8008124425CBF05
:1045800001F5801E9EEAC47F02D4F0BCBDE8008124
:10459000244238D4F0BCA1F1C041BDE8004100F094
:1045A000ADB94FEAD22242EA43524FEAD323A7FBE6
:1045B00002864FEAD02040EA415007FB03661EEA1C
:1045C0000E0F4FEAD12105FB026658BFA6EB00563D
:1045D000B6EB00564FEA520E4EEAC37E18EB0E0EB3
:1045E00056EB530EBDD518EB02085E417F1C55F10A
:1045F0000005B6E74FF480154FF000074FF00006B6
:104600004FF00008ADE7F0BC4FF0000001F1C041F1
:1046100001F00041BDE8008111EA0C1F0CEA1315FE
:1046200000D00CE013EA0C1F00F025804FF00000D2
:10463000F0BC81EA030101F00041BDE80081F0BC5B
:10464000BDE8004181EA030100F058B9F0BCBDE8C3
:10465000004170B500F004F9097EFC3E00F007B897
:1046600081EA03014FF0000001F00041704781EA48
:10467000030100F043B9F0BCBDE800414FF0000079
:1046800021497047FFFDFBF9F7F5F4F2F0EEEDEB91
:10469000E9E8E6E4E3E1E0DEDDDBDAD8D7D5D4D340
:1046A000D1D0CFCDCCCBCAC8C7C6C5C4C2C1C0BF8C
:1046B000BEBDBCBBBAB9B8B7B6B5B4B3B2B1B0AF92
:1046C000AEADACABAAA9A8A8A7A6A5A4A3A3A2A176
:1046D000A09F9F9E9D9C9C9B9A9999989797969531
:1046E00095949393929191908F8F8E8E8D8C8C8BCD
:1046F0008B8A898988888787868585848483838255
:10470000828181800000FF070000F87FDFF848C148
:1047100070B51CEA111E1EBF1CEA13159EEA0C0F91
:1047200095EA0C0F00F06F8081EA030423EA4C1332
:104730004EEAD47E21EA4C1141F4801143F48013F7
:10474000AE44A1FB024CA0FB0365AEF17F7E36199F
:1047500055EB0C05A1FB034C4CF10003A0FB021C24
:1047600016EB0C06654153F10003094218BF46F0F1
:10477000010613F4007F0BD14FEA03314FEA0530F5
:10478000340341EA155140EA16506FF003020AE083
:104790004FEAC3214FEAC520F40241EA555140EAED
:1047A00056506FF0020202EB2E4201EB025585EAF1
:1047B000CE710AD05FEA440C18BF24F0004450F1D7
:1047C000000041F1000120EAD47040F2FE7C624515
:1047D00000D270BDA84214BF4FF080444FF0404457
:1047E000002E08BF0024BEF1806FA8BFA1F1C04118
:1047F000BDE8704080F282804FF0000001F1C041BE
:1048000001F0004170479EEA0C0F0CEA131518BF27
:1048100095EA0C0F06D04FF0000081EA030E0EF06F
:10482000004170BD00F01CF88900013E00F007B89F
:1048300000F009B84FEA430C5FEA5C5C08D081EAFB
:10484000030100F05BB84FEA410C5FEA5C5CF6D113
:104850004FF00000014970470000FF070000F87F9B
:104860000EF1020E2EF0030E5EF8046B364205D4F4
:10487000012A43EB030515F5001F12D8012841EB6F
:10488000010C1CF5001F0CD80ED14FEAD17C15F598
:10489000001F0CEB4C0C0CF1020C08BF4CEBD37C52
:1048A00004E04FF0080C01E04FEAD37C0CEB4C0520
:1048B00026FA05F606F00706B6F1040C06D20EEB52
:1048C000860CBDE870404CF0010C6047DFE80CF04E
:1048D000090B02024FF000414FF00000A1F500214A
:1048E00070BD19461046012851EB010418BFD4F5DC
:1048F000001484BF002001F0004170BD0808A0F53D
:1049000000114FEA3101704791EA030F10B581F0B1
:1049100000413FF5FBAC83F0004300F0EFB800002E
:104920002DE9F04101F5801CBCF5001FC0F2C380E9
:104930004FEA115C21EA0C510CF1FD0C41F480119D
:104940005FEA5C0C0CF5C07C01D3400049413DA4FA
:10495000890241EA905187028E0E0A0CA45D04FB85
:1049600004F602FB06F6C6F14046A4FB0662F60D0D
:1049700046EA422606FB06F4A4FB01235242C3F199
:10498000404338BF5B1EA6FB02420024E6FB032423
:10499000D20B42EA4446A6FB0623A1FB02E2A3FB9C
:1049A00007E4A4184FF0000252F10002E3FB0142B9
:1049B0006442C2F1404E38BFAEF1010EA6FB0423A3
:1049C0004FF00002E6FB0E32A2FB03464FF000045C
:1049D000B61954F10004E2FB0264A1FB06E6A4FB55
:1049E00007E816EB08064FF0000858F10008E4FB52
:1049F00001687642C8F1405838BFA8F10108A2FB0F
:104A000006E4A3FB08E52D194FF0000454F100045F
:104A1000E2FB0854A1FB05E6A7FB04E818EB060837
:104A20004FF0000656F10006E1FB048618F1200560
:104A300056F10006A809A8F11B08B10908F03F08C3
:104A4000B8F10A0F40EA86601CD901EB0C51BDE8B1
:104A5000F08100BFFCF5EEE8E2DDD8D3CFCBC7C3D1
:104A6000C0BDB9B6B4B1AEACA9A7A5A3A19F9D9B8B
:104A70009A9896959392908F8D8C8B89888786854E
:104A800084838281A0FB006800FB01F208EB4208EE
:104A9000B8EB872807D5341858EB0104D5D5401C4E
:104AA00051F10001D1E7341A78EB0104CDD4401E56
:104AB00071F10001C9E75FEA4C0C5FEA9C5C0DD123
:104AC00005D34FF0000001F00041BDE8F081BDE8E2
:104AD000F04170B5FFF7C4FE6DDBFFBEBDE8F041ED
:104AE0004FF00000004970470000F87F10B591EAD0
:104AF000030F48BF83F000433FF508AC841A71EB05
:104B0000030C07D212198CF0004C43EB0C03001B72
:104B100061EB0C01DFF8A4E14FEA1154A4EB135C44
:104B20001EEA430F18BF9EEA445F00F0B08023EAFC
:104B30006E03524221EA0451C3EB6E0338BF5B1E81
:104B4000DCF1200E25D322FA0CFE10EB0E0043FA06
:104B50000CFE41EB0E01CCF1200E03FA0EFE10EB21
:104B60000E0051F10001CCF1200E29D412FA0EF200
:104B700001EB0451BDE8104058BF7047401C1CBFFA
:104B8000B2F1004F704700280CBF491C20F0010013
:104B9000704712EB020E43EB030218BF4FF0010EF9
:104BA0004EEA4202ACF1200CDCF11E0E54D943FA5D
:104BB0000CFE10EB0E0051F1FF31CCF11E0ED5D5DD
:104BC0000EF1010E12FA0EFE404141EB010101EB24
:104BD000445C5FEA5C5C10D910EBDE7001EB0451C1
:104BE00038BFBEF1004FBDE8104018BF7047002825
:104BF0000CBF491C20F00100704730D24FEAD42C82
:104C000011F5001124F400641BD0B1FA81F20B3AC3
:104C1000A41AA41ED2F12003914030FA03F31943E1
:104C2000904001EBCC71002C01EB0451BDE8104029
:104C3000A8BF704701F1C0414FF0000001F00041F2
:104C40007047B0FA80F310FA03F100D110BDE41AF6
:104C5000173C4805C90AE4E701EB045110BD4910AF
:104C600001EB0451BDE810404FEA300002E04FF084
:104C7000000170474A0008BF0042F8D0B2F5001F9B
:104C800028BF704701F000414FF0000070479EEAD6
:104C9000445F07D011EA5E0FBDE8104004BF002159
:104CA00000207047BDE8104070B5FFF7D9FD00BF88
:104CB00040DFF63E83F00041104670470000E0FF01
:104CC00043004FEAD30C4FEA3C0C43401FBF400760
:104CD0000CF1605113F0FE4F70471CF0006F03D1D0
:104CE00000200CF0004170470CF0004343EA507084
:104CF00010B540EACC0000F01CFA00BF00000092A2
:104D00004FEA0001FFF7FABD4FF000414FF00000FD
:104D1000A1F500217047000090EA010F48BF81F023
:104D2000004100F15882421A3CBF801A89184FEAAC
:104D3000D0524FF07F4C1CEA410FA2EBD15318BF69
:104D40009CEA026F00F03B804FF0004C4CEA0020E0
:104D50004CEA012121FA03FC10EB0C0C1ED202F1EB
:104D6000FF325FEA1C2040EBC25038BF70471CF096
:104D70007F0F4FEA400C18BFBCF17F4F38BF704720
:104D8000C3F12003994008BF20F00100BCF17F4F20
:104D900038BF7047A0F1C04000F011BA4FEA3C00A4
:104DA000000A40EBC25028BF1CF0FF0F4FEA400C36
:104DB000E6D018BFBCF17F4F38BF7047EAE79CEAE6
:104DC000026F05D010EA5C0F08BF00F0004070478A
:104DD00010B500F0AEF900BF64FBBE3E4FF47F0C8F
:104DE0001CEAD0121EBF1CEAD11392EA0C0F93EA00
:104DF0000C0F00F0858090EA010F48BF42F48072EA
:104E000040F4000C41F400002CF07F4120F07F4082
:104E100000B58142A2EB03020FF2081CACEB504E2E
:104E2000C0F100009EF800E04FEA4E0E00FB0EFCC1
:104E300038BF49004FEA2C1C02F5FA020CFB0EF3B6
:104E40004FEACE1E4FEA112C4FEAC1210EEB635EF2
:104E500042EB22420EFB0CFC4FEA1C5300FB0311F9
:104E60004FEA112C4FEA01310EFB0CFC4FEADC4CEF
:104E700000FB0C11C14228BF09184CEB03335DF84D
:104E800004EB10EB410143EBC250B2F57C0F38BF8D
:104E9000704729D512F0F00F1CBF00F1C04000F0A0
:104EA00000407047008182838485868788898B8C47
:104EB0008D8E8F919293959697999A9C9D9FA0A283
:104EC000A3A5A7A8AAACAEB0B2B3B5B7B9BCBEC0D3
:104ED000C2C5C7C9CCCED1D4D7D9DCDFE2E6E9EC74
:104EE000F0F3F7FAFE0000004FEA400C0CF1807C72
:104EF000BCF17E4F28BF7047B0F1C04000F05FB9F1
:104F000090EA010F0CEAD11348BF42F48072624567
:104F100038BF634507D213F47F0F16D080EA010033
:104F200000F00040704710B500F003F9097EFC3E28
:104F300000F005B880EA010000F00040704780EA08
:104F4000010000F0004000F03AB912F47F0F04BFF6
:104F50000248704780EA010000F031B90000C07FCC
:104F600041000B0ED3F19E0208D950F400034FEA22
:104F7000032323FA02F048BF4042704710B500F007
:104F8000D8F800BF49922480002070476FF000429B
:104F900082EA200070470000C10DD1F19E0206DBBD
:104FA0004FEA002343F0004323FA02F07047004227
:104FB00007D54FEA4001B1F1FE4F02D24FF0000099
:104FC000704710B500F0B5F8499224800020704772
:104FD0006FEA20007047000010F0004148BF4042D7
:104FE000B0FA80F310FA03F2C3F19D030BD051EA3B
:104FF000C35101EB1220530638BF704700F1010086
:1050000008BF20F001007047B0FA80F310FA03F2F5
:10501000C3F19D030AD0D90501EB1220530638BF16
:10502000704700F1010008BF20F001007047000048
:105030004FF47F0C1CEAD0121EBF1CEAD11392EA77
:105040000C0F93EA0C0F00F0478090EA010F48BF65
:1050500042F480724FF0004C4CEA00204CEA0121EF
:1050600002EB0302A0FB0113A2F50002002918BF06
:1050700043F001035B0028BF4FEA330342EB2242B7
:105080005FEA132C4CEBC2502EBFBCEB436FB2F562
:105090007C0F70474FEA036CBCF1004F08BF20F053
:1050A0000100B2F57C0F38BF70470BD582F0FF02CC
:1050B00012F5803FC8BF704700F1C040D8BF00F074
:1050C0000040704700F5000C5FEA4C0C48BF704789
:1050D000B0F1C04000F073B890EA010F0CEAD113B0
:1050E00048BF42F48072624538BF634504D280EA0B
:1050F000010000F00040704710B500F01AF800BF42
:105100008900013E00F007B800F009B85FEA410CE1
:105110005FEA1C6C08D080EA010000F050B85FEA3A
:10512000400C5FEA1C6CF6D14FF00040A0F5800007
:1051300070470EF1020E2EF0030E5EF8044B24426F
:1051400004D44FEA4102B2F17F4F11D84FEA400335
:10515000B3F17F4F0CD80ED14FEAD07CB2F17F4F24
:105160000CEB4C0C0CF1020C08BF4CEBD17C04E0B6
:105170004FF0080C01E04FEAD17C0CEB4C0324FA11
:1051800003F404F00704B4F1040C06D20EEB840C13
:10519000BDE810404CF0010C6047DFE80CF0070858
:1051A00002024FF00040A0F5800010BD084642000A
:1051B00018BFD2F1807288BF00F0004010BDFF21FF
:1051C00041EAD050C005704790EA010F48BF81F016
:1051D00000413FF5A8AD421A04D882F00042A0EB8E
:1051E000020011444FEAD0524FF07F4C1CEA410FAD
:1051F000A2EBD15318BF9CEA026F4AD04FF0004C8B
:105200004CEA00204CEA012121FA03FCB0EB0C0C23
:105210000FD412F0FE0F36D05FEA4C001DD50012FD
:1052200040EBC25038BF70471CF03F0F18BF7047AB
:105230000BE0A2F101025FEA1C2040EBC25038BF34
:1052400070471CF07F0F18BF7047C3F120039940CF
:1052500014BF401E20F00100704780084FEA12235F
:1052600008BF7047B0FA80FCA2EB0C02CCF1280C0E
:1052700060FA0CF093EA122F04BF00EBC2507047A3
:105280004FEAC3707047130A5FEADC1008BF70472B
:10529000F6E79CEA026F04D010EA5C0F08BF00201A
:1052A000704710B5FFF745FF40DFF63E81F0004044
:1052B00070470CF00F03092B08BF082000F059803D
:1052C0000A2B0BD0082B18BF704708BF1CF0400FEB
:1052D0000AD04FF000004FF0000170471CF0400F63
:1052E00018BF4FF0004070471CF0100F08D020F09E
:1052F000704300F07F4242EAD3014FEA43707047A7
:1053000000F0604021F07F4242EA000201F07F405D
:1053100040EA727070474FF0FF0C4CF4E06C1CEAEE
:1053200011531CBF9CEA030C9445C2BFDA4201EB47
:1053300002517047002B0DD0BCF1000F0FD0002A96
:1053400001F00041A4BF41F0E04141F07F614FF026
:105350000000704701F000414FF00000704750EA34
:1053600001334FF09B0C18BF4CF0806C7FF46EA89B
:1053700070471CF4801F11D01CF4E02F03D06FEA9B
:10538000CC31490070474FF04050EFF3008222F0DB
:10539000704242EA000282F3008870474FF000003A
:1053A0007047000075191A0C6A231B1C1D1E1F2054
:1053B0007274433B4138393A696B6C376F77246DAF
:1053C0006E70000000000000000000000000680097
:1053D0000004800041010000000100008300000083
:1053E0000008000000010018320005000000204104
:1053F0000000D242295C0F3E9A99993E3333733FA5
:10540000295C0F3E00007000000000240000000234
:105410000003000000650054FFEF0000FA80000B5D
:1054200012820001030C30C30E8C8CE914D54002AB
:1054300013710F8E3883F8833000F883258EF8833C
:105440003000F883FFFFFFFF0FFEA9D62400040001
:105450001A8279A10000003CFFFF0000001000004C
:1054600038836FA2003E03304000000002CAE30907
:105470003E8000002000000000000000400000000E
:1054800060000000000C0000000C186E0000069286
:105490000A16C0DFFFFF0256FD8CD377FFE1C496EA
:1054A000E0C5BEAA00000000FFFF0B2B000016574E
:1054B000000003594000000000001DFA00026C1DAE
:1054C000000000003FFFDFEB003EB3B6000D227886
:1054D00000002F3C00000000001942B5000039A276
:1054E0000000B365D90E9FC91DCF4C3430000000B9
:1054F000500000003BB67AE80064000000C80000DD
:1055000000000000100000001000FA921000225E5F
:10551000000D229F0001000000320000FF46000045
:1055200063D400001000000004D6000004CC00008A
:1055300004CC0000000010720000004000000000D9
:105540000000000000060002000500070000000047
:105550000064000000000000000000050005006479
:1055600000200000000000000000000000004000DB
:105570000000030000000032F8980000FF65000002
:10558000830F0000FF9BFC000000000000000000F3
:10559000000000000000000000000000000000000B
:1055A00000000000000000000000000000000000FB
:1055B0000000100040000000000000060000B26A79
:1055C000000200000001FB830068000000D9FC001D
:1055D0007CF1FF830000000000650000006403E828
:1055E00000640028000000250000000016A0000054
:1055F0000000100000001000002F0000000001F467
:105600000000100000280000FFFF4581FFFFFA7234
:105610000000000000000000004400050005BAC6BC
:10562000004778A200000001000000000000060012
:10563000000000140000254D002F706D000005AE25
:10564000000C02D00000000000000000000000007C
:1056500000000000001B000000000000000000002F
:1056600000000000006400000008000000000000CE
:10567000000000000000000000000000000000002A
:10568000000000000000000000000000000000001A
:10569000000000000000000000000000000000000A
:1056A00000000000000000000000000000000000FA
:1056B00000000000000000000000000000000000EA
:1056C00000000000001B00000000000000000000BF
:1056D000000E000E00000AC70004000000000032A7
:1056E000FFFFFF9C00000B2B0000000200000001E8
:1056F00000000064FFE50000000000000000000062
:105700000000000000000001000000000001000097
:105710000000000000018000000180000001800006
:10572000002426D300000000000000000006001046
:105730000096003C00000000000000000000000097
:10574000000000000C0A4E68CDCF7709501667594B
:10575000C619CE820000000000000000000000001A
:1057600000000000000000000000000017D78400C7
:10577000030000000000000000000000C7938F9DA0
:105780001E1B1C19000000000000000000000000AB
:105790000000000000000000000000000203188567
:1057A00000004000000000030000000300000000B3
:1057B00000000000400000000000000000000000A9
:1057C00000000000000000000000000000000000D9
:1057D00000000000000000000000000000000000C9
:1057E0000000000000000000677DDF7E72902E55F3
:1057F0004CF6E688000000000000000000000000F9
:1058000000000000D8DCB4B8B0D8B9ABF3F8FAB3F4
:10581000B7BB8E9EAEF132F51BF1B4B8B08097F1F4
:10582000A9DFDFDFAADFDFDFF2AAC5CDC7A90CC978
:105830002C97F1A989264666B28999A92D557DB084
:10584000B08AA896365676F1BAA3B4B280C0B8A88A
:105850009711B28398BAA3F0240844106418B2B91F
:10586000B49883F1A329557DBAB5B1A38393F00011
:105870002850F5B2B6AA839328547CF1B9A3829339
:1058800061BAA2DADEDFDB819AB9AEF5606870F149
:10589000DABAA2DFD9BAA2FAB9A38292DB31BAA2EC
:1058A000D9BAA2F8DF85A4D0C1BBAD83C2C5C7B841
:1058B000A2DFDFDFBAA0DFDFDFD8D8F1B8AAB38D6F
:1058C000B4980D355DB2B6BAAF8C96198F9FA70EFE
:1058D000161EB49AB8AA872C547CBAA4B08AB69182
:1058E000325676B28494A4C808CDD8B8B4B0F19931
:1058F00082A82D557D98A80E161EA22C547C92A429
:10590000F02C5078F184A898C4CDFCD80DDBA8FC0D
:105910002DF3D9BAA6F8DABAA6DED8BAB2B6869608
:10592000A6D0F3C841DAA6C8F8D8B0B4B882A89215
:10593000F52C548898F135D9F418D8F1A2D0F8F99B
:10594000A884D9C7DFF8F883C5DADF69DF83C1D857
:10595000F40114F1A8824EA884F311D182F5D992F2
:10596000289788F109F41C1CD884A8F3C0F9D1D970
:105970009782F129F40DD8F3F9F9D1D982F4C20351
:10598000D8DEDF1AD8F1A2FAF9A88498D9C7DFF8CF
:10599000F8F883C7DADF69DFF883C3D8F40114F1BC
:1059A00098A8822EA884F311D182F5D992509788B5
:1059B000F109F41CD884A8F3C0F8F9D1D99782F181
:1059C00049F40DD8F3F9F9D1D982F4C403D8DEDF54
:1059D000D8F1AD8898CCA809F9D98292A8F57CF1C4
:1059E000883ACF944A6E98DB6931DAADF2DEF9D8A5
:1059F0008795A8F221D1DAA5F9F417D9F1AE8ED0A6
:105A0000C0C3AE82C684C3A88595C8A588F2C0F17C
:105A1000F4010EF18E9EA8C63E56F554F18872F43C
:105A20000115F19845856EF58E9E0488F142985ACD
:105A30008E9E068869F4011CF1981E1108D0F504A9
:105A4000F11E970202983625DBF9D985A5F3C1DA54
:105A500085A5F3DFD88595A8F309DAA5FAD882924F
:105A6000A8F578F1881A849F26889821DAF41DF326
:105A7000D8879F39D1AFD9DFDFFBF9F40CF3D8FA1F
:105A8000D0F8DAF9F9D0DFD9F9D8F40BD8F3879F39
:105A900039D1AFD9DFDFF41DF3D8FAFCA869F9F9E1
:105AA000AFD0DADEFAD9F88F9FA8F1CCF398DB45B6
:105AB000D9AFDFD0F8D8F18F9FA8CAF38809DAAF41
:105AC0008FCBF8D8F2AD978D0CD9A5DFF9BAA6F334
:105AD000FAF412F2D8950DD1D9BAA6F3FADAA5F2F2
