:020000040800F2
:10000000E00D02207902000877200008691E000830
:1000100075200008FD0800084D2A000800000000B7
:10002000000000000000000000000000C101000806
:100030006D1500080000000015020008A524000846
:100040009D0200089D0200089D0200089D02000814
:100050009D0200089D0200089D0200089D02000804
:100060009D0200089D0200089D0200089D020008F4
:100070009D0200089D0200089D0200089D020008E4
:100080009D0200089D0200089D0200089D020008D4
:10009000010900089D0200089D0200089D02000859
:1000A0009D0200089D0200089D0200089D020008B4
:1000B0009D020008152500089D0200089D02000809
:1000C0009D0200089D0200089D0200089D02000894
:1000D0009D0200089D2700089D0200089D0200085F
:1000E0009D0200089D0200089D0200089D02000874
:1000F0009D0200089D0200089D0200089D02000864
:100100009D0200089D0200089D0200089D02000853
:100110009D0200089D0200089D0200089D02000843
:100120009D0200089D0200089D0200089D02000833
:100130009D0200089D0200089D0200089D02000823
:10014000AD0A00089D0200089D0200089D020008FB
:100150009D0200089D0200089D0200089D02000803
:100160009D0200089D0200089D0200089D020008F3
:100170009D0200089D0200089D020008000000008A
:100180009D0200089D0200087D2600089D020008CF
:100190009D0200089D0200089D0200089D020008C3
:1001A00000000000000000009D020008DFF80CD0F5
:1001B00000F082FB0048004701400008E00D0220EB
:1001C0002A4B19680868B0E8F04F80F30988BFF33C
:1001D0006F8F4FF0000080F311887047000000001F
:1001E00006480068006880F3088862B661B6BFF30D
:1001F0004F8FBFF36F8F00DF00BF00BF08ED00E03F
:10020000DFF80C00016841F470010160704700BF25
:1002100088ED00E0EFF30980BFF36F8F134B1A688E
:100220001EF0100F08BF20ED108A20E9F04F10607B
:1002300008B44FF0500080F31188BFF34F8FBFF325
:100240006F8F04F035FE4FF0000080F3118808BC7A
:1002500019680868B0E8F04F1EF0100F08BFB0EC46
:10026000108A80F30988BFF36F8F70472400002045
:10027000EFF30580704700000948016841F4700100
:1002800001600848804708480047FEE7FEE7FEE7B0
:10029000FEE7FEE7FEE7FEE7FEE7FEE7FEE700001B
:1002A00088ED00E0B9240008AD0100089FED1A1A9E
:1002B000F5EE000A40EE010ABDEEE00AF5EEC00AD6
:1002C00010EE100AF1EE10FA38BF401E00EE100AD0
:1002D0001349F7EE001AB8EEC00A30EEC00ADFED9F
:1002E0000F0A20EE200AFCEEC00A10EE900AC0F3BE
:1002F000080000EE900A01EB8000F8EE600A90ED35
:10030000011A70EE600A90ED000A71EEE01A21EE1B
:10031000800A00EE810A704783F9223E0000004403
:1003200014590008DFED190AB5EEC00A60EE200A84
:10033000BDEEE01A11EE100AF1EE10FA38BF401EC1
:1003400000EE100A1349F7EE001AB8EEC00A30EEBC
:10035000C00ADFED0F0A60EE200ABCEEE00A10EEE4
:10036000100AC0F3080000EE100A01EB8000B8EE9E
:10037000400A90ED011A70EEC00A90ED000A71EE8D
:10038000E01A21EE800A00EE810A704783F9223ECE
:10039000000000441459000840EA01039B0703D001
:1003A00009E008C9121F08C0042AFAD203E011F8B4
:1003B000013B00F8013B521EF9D27047D2B201E076
:1003C00000F8012B491EFBD270470022F6E710B55A
:1003D00013460A4604461946FFF7F0FF204610BDB3
:1003E0002DE9FE4F804681EA0300C00F0C460090C5
:1003F00021F0004123F00045B8EB0200A94105D2ED
:100400004046214690461C460B46024623F00040DB
:10041000104347D0270DC7F30A00C3F30A510290D7
:10042000401A019040286BDAC3F3130040F4801B9C
:100430000098924620B10023D2EB030A63EB0B0B2A
:1004400001985946C0F14002504600F09FF8064618
:100450000D4650465946019A00F0A7F810EB0800E7
:100460006141002487EA115284EAE7731A4340D0BD
:10047000009A62B3019A012A4FEA075215DC001B69
:1004800061EB02014FF0004202EA0752CDE900425F
:10049000001C41F5801132462B4600F0DEF803B017
:1004A000BDE8F08F40462146F9E7001B61EB0201F1
:1004B000001C41F5801300185B412018A2F50017BD
:1004C00047EB030140EAD570B6196D4111E06D08A4
:1004D0004FEA360645EAC0754FEA0752001B61EB4A
:1004E0000201001C41F5801149084FEA3000001953
:1004F000514132462B4603B0BDE8F04F00F09EB8A4
:100500000098012240000023D0EB020263EBE0736D
:10051000009821464FEAE074B8EB000061EB04015B
:10052000E9E783F000435BE781F0004158E700F022
:10053000004230F000400AD0C10D01F56071C0F3F7
:10054000160042EA0151C2084007114370470020DB
:100550000146704701F0004330B421F0004150EAF9
:10056000010206D00A0DA2F56072C1F31301002A40
:1005700002DC30BC00207047440F44EAC104C100D3
:10058000E01830BC00EBC25000F021B8202A04DB98
:10059000203A00FA02F1002070479140C2F1200396
:1005A00020FA03F3194390407047202A06DBCB174B
:1005B000203A41FA02F043EAE07306E041FA02F31E
:1005C000D040C2F1200291400843194670470029EB
:1005D000A8BF7047401C490008BF20F001007047C9
:1005E00010B4B0FA80FC00FA0CF050EA010404BF29
:1005F00010BC704749B1CCF1200421FA04F411FA7F
:100600000CF118BF012121430843A3EB0C01CB1DC2
:100610004FEA00614FEA102042BF002010BC704733
:1006200000EBC35010440029A4BF10BC7047401C0D
:10063000490008BF20F0010010BC704710B5141E1F
:1006400073F1000408DA401C41F1000192185B418B
:100650001A4301D120F0010010BD2DE9F04D924662
:100660009B4611B1B1FA81F202E0B0FA80F2203279
:100670009046FFF78BFF04460F4640EA0A0041EA26
:100680000B0153465A46084313D0114653EA010062
:1006900019D0C8F14002504600F020F905460E4638
:1006A000504659464246FFF771FF084305D00120E6
:1006B00004E020463946BDE8F08D0020054346EAB7
:1006C000E0762C4337430A986305E40AA0EB080060
:1006D0000022FD0A44EA47540A3002D500200146B0
:1006E000E9E7010510196941DDE90845001969418B
:1006F000BDE8F04DA2E72DE9FE4F81EA030404F0C6
:10070000004421F0004100944FF0000B23F000431F
:1007100050EA01045ED052EA03045BD0C3F30A54EA
:10072000C1F30A552C44A4F2F3340194A0FB025403
:10073000C1F3130141F48011C3F3130343F4801395
:1007400001FB024400FB034E840A970A44EA8154E9
:1007500047EA8357A4FB076802958D0A05FB0785C6
:100760004FEA932C04FB0C542705029D4FEA0658D0
:1007700047EA1637B5EB08056EEB070C870E920EAD
:1007800047EA811742EA8312A7FB0201B6EB0B018D
:1007900064EB00042B0D43EA0C335E1844EB1C5051
:1007A000DA465146E7FB0201C5F313044FEA0B3367
:1007B00043EA14534FEA0432019C43EA0603A4F1CE
:1007C0000C040294009CCDE900B4FFF746FF03B08F
:1007D000BDE8F08F00200146F9E72DE9F04D81EAF0
:1007E000030404F0004B21F0004514464FF0000ACA
:1007F00023F0004150EA050220D054EA01021DD046
:10080000C5F30A570246C5F31303C1F31300C1F33E
:100810000A5640F4801543F48013A7EB0608101B1A
:10082000D64608F2FD3873EB050002D308F1010843
:1008300001E092185B41B8F1000F03DA0020014695
:10084000BDE8F08D00204FF48011064684460EE08E
:10085000171B73EB050705D3121B63EB0503064358
:100860004CEA010C49084FEA300092185B4150EA0B
:100870000107EDD152EA030012D082EA040083EAB4
:100880000501084305D0101BAB4106D2012200230D
:1008900006E000224FF0004302E06FF00102531027
:1008A0001AEB06004CEB085110EB0A0041EB0B0170
:1008B000BDE8F04DFFF7C2BE064C074D06E0E0680C
:1008C00040F0010394E8070098471034AC42F6D397
:1008D000FFF770FCB8610008D8610008202A04DB2B
:1008E000203A21FA02F00021704721FA02F3D040A9
:1008F000C2F120029140084319467047FEE700000C
:1009000010B50B4C0221204600F08CFA00280DD0C7
:100910000221204600F0E4F9064A0021204600F0BA
:1009200051FBBDE81040034800F006B810BD0000C0
:10093000006400403C04022030B402681C49A2F567
:100940000073023B15D0012B13D0022B11D0042BC6
:100950002CD10A880A8130F80B2F52BA0A804288BB
:1009600052BA4A80828852BA8A808079887104207B
:1009700019E0521ED3B20F4A03EB8304137001EB4C
:10098000440231F81450158130F80B5F1B1D6DBA0D
:1009900021F81450418849BA5180818849BA918020
:1009A00080799071D8B230BC00F01CBE30BC70476A
:1009B00078040220A00000202DE9F04F8BB08A4679
:1009C00081461E46904601210820DDF850B001F016
:1009D000D1FB01214C06204601F0D8FB0121204625
:1009E00001F0E0FB0021204601F0DCFB02218DF844
:1009F0002010032000248DF822408DF82100294F7B
:100A0000079001258DF8235007A9384601F0ACF96D
:100A100009220021384601F0F8F90922012138465F
:100A200001F0F3F98DF812B08DF813908DF816409F
:100A3000ADF810608DF817501B4E8DF81480069499
:100A40008DF815A004A9304600F048FA8DF80A4048
:100A50008DF80B408DF80C50ADF80040ADF8044017
:100A6000ADF80240ADF80640ADF808408DF80D50E5
:100A7000684600F071F901220221304600F026FAA2
:100A800014208DF8240004208DF825008DF82640D0
:100A90008DF8275009A801F0EFFA0BB00020BDE84F
:100AA000F08F0000000C02400064004010B50B4CB9
:100AB0000221204600F0B6F900280DD00221204680
:100AC00000F00EF9064A0021204600F07BFABDE84E
:100AD0001040034800F006B810BD00000068004058
:100AE000500402200168A1F50071053914D00129D4
:100AF00024D113490A880A8130F80B2F52BA0A8090
:100B0000428852BA4A80828852BA8A808079887133
:100B10005FF0020000F066BD09490A390A880A81BF
:100B200030F80B2F52BA0A80428852BA4A80828823
:100B300052BA8A80807988710120EBE77047000003
:100B40006E0402202DE9F04F8BB08A4681461E4686
:100B5000904601210220DDF850B001F00BFB01218D
:100B60008C06204601F012FB0121204601F01AFB01
:100B70000021204601F016FB4FF440500790022060
:100B80008DF8200000248DF8224003208DF82100EC
:100B9000284F01258DF8235007A9384601F0E4F8C5
:100BA00009220C21384601F030F909220D2138467E
:100BB00001F02BF98DF812B08DF813908DF81640D6
:100BC000ADF810608DF817501B4E8DF81480069408
:100BD0008DF815A004A9304600F080F90E208DF89C
:100BE0000A008DF80B408DF80C50ADF80040ADF8C0
:100BF0000440ADF80240ADF80640ADF808408DF86D
:100C00000D50684600F0A8F801220221304600F09D
:100C10005DF940208DF8240004208DF825008DF822
:100C200026408DF8275009A801F026FA0BB00020C5
:100C3000BDE8F08F000402400068004010B586B0A7
:100C4000009000208DF808008DF8090008208DF82C
:100C50000A00080A089C8DF80B008DF80C10100A89
:100C60008DF80D008DF80E20180A8DF80F008DF804
:100C70001030200A8DF811008DF8124069460248A4
:100C800000F0E8F906B010BD0064004010B586B071
:100C900040F2FF14009400248DF808408DF80940BC
:100CA00008248DF80A40040A8DF80C00080A8DF813
:100CB0000D008DF80E10100A8DF80F008DF8102021
:100CC000180A8DF811008DF80B408DF81230694626
:100CD000024800F0BFF906B010BD000000680040F7
:100CE00030B5082310240422B1F5007F1DD010DC9C
:100CF000202929D007DC012921D0042922D0082964
:100D000000D1C46030BD402920D0B1F5807FF9D139
:100D10000BE00025B1F5004F06D008DCB1F5806F7F
:100D200003D0B1F5006FEDD18561426030BDB1F502
:100D3000803F0DD0B1F5003FF8D1446030BD05498A
:100D4000816030BDC36030BD036130BD046130BD22
:100D5000436030BD01010100F0B5827A012191406C
:100D60002E4A136843F0010313602C4B1C331C689C
:100D70008C431C60294D067B294C0C35A6B92E6886
:100D80008E432E604688C78846EA0746877A04EB7A
:100D9000C707C7F840660688878846EA0746877A05
:100DA00004EBC707C7F84466067B012E12D12E68F4
:100DB0000E432E60867A056804EBC6064FEA354579
:100DC000C6F84056867A456804EBC6044FEA3545B6
:100DD000C4F84456114CC57A241D002D256806D050
:100DE0000D4325600D4C0589143415B104E08D4385
:100DF000F7E725688D4325600589012D02D1256817
:100E00000D432560407B012802D118680843186013
:100E1000106820F001001060F0BD00000066004086
:100E2000006000400246002053690B424AD0B1F5F1
:100E3000807F3BD013DC08292ED007DC012926D087
:100E4000022927D004293DD1D0682BE0102925D0D4
:100E5000202926D0402935D11069102130E0B1F584
:100E6000004F2BD00BDCB1F5007F22D0B1F5806FA5
:100E700022D0B1F5006F25D19069702120E0B1F545
:100E8000803F11D0B1F5003F1CD15068E5E7906874
:100E90000D4915E0D06802E0D068DEE71069032153
:100EA0000EE0106908210BE05068FBE79069012112
:100EB00006E09069022103E0906900E05068042197
:100EC00000F0F6B97047000001010100002A4269F4
:100ED00001D00A4300E08A434261704710B50368BD
:100EE000002223F002030360036843F00103036060
:100EF0004FF6FF7300E0521C4468E40701D19A42A8
:100F0000F9D14268D2073ED08A79012A02683CD0E2
:100F100022F080020260CA79012A026838D022F0E9
:100F2000400202600A7A012A026834D022F02002CC
:100F300002604A7A012A026830D022F01002026070
:100F40008A7A012A02682CD022F008020260CA7A4A
:100F5000012A026828D022F0040202608A78CC7844
:100F6000920742EA04620C7942EA04424C79098809
:100F700042EA0452491E0A43C261016821F001019C
:100F80000160002114E0002010BD42F08002C1E7A2
:100F900042F04002C5E742F02002C9E742F01002E9
:100FA000CDE742F00802D1E742F00402D5E7491C40
:100FB0004268D20701D09942F9D14068C007E2D116
:100FC000012010BD10B500EB0113D3F8B04114F0AF
:100FD00004041472D3F8B04134D0E408C2F80440D9
:100FE000D3F8B04104F002045472D3F8B44104F0D1
:100FF0000F049472D3F8B441240AD474D3F8B841DE
:10100000D472D3F8B841240A1473D3F8B841240C2D
:101010005473D3F8B841240E9473D3F8BC41D473FD
:10102000D3F8BC41240A1474D3F8BC41240C547482
:10103000D3F8BC311B0E937439B1016941F0200122
:10104000016110BD640D1460CAE7C16841F0200160
:10105000C16010BD30B50246002093685B0108D422
:101060009068000101D5012003E09068C00037D5E9
:10107000022002EB0012D2F8803103F00103C2F823
:1010800080310B7A73B3D2F880414D681C434B7AA0
:1010900043EAC5031C43C2F880418B7A03F00F0377
:1010A0008B72D2F8843123F00F03C2F88431D2F866
:1010B00084318C7A2343C2F88431CB7ACC6843EAFA
:1010C0000423C2F88831CB7B096943EA0121C2F8C5
:1010D0008C11D2F8801141F00101C2F8801130BDAD
:1010E000042030BDD2F880314C7A23430C8843EA87
:1010F0004453C2F88031D0E710B5A0B1D0F8153014
:1011000010EE101AC0F81930C0F8111010EE901A35
:1011100030EEC00AC0F80D1010EE101AC0F815100D
:1011200002781AB11DE09FED500A10BD4F4A9FEDA5
:10113000500A914202DCD0F8151007E000EE901A38
:1011400070EEC00A10EE901AC0F81510494A91428C
:1011500007D900EE901A30EE800A10EE101AC0F88F
:101160001510D0F8011000EE901AD0F8151000EE0E
:10117000101A20EE800A00EE901A10EE104AC0F805
:101180002540D0F8292000EE102AD0F8052001EEE5
:10119000102A01EE200A00EE903A10EE102A00EE1E
:1011A000101AC0F82920D0F8091070EE600A00EE7D
:1011B000101A20EE800A10EE103A00EE102AC0F845
:1011C0002D30D0F8211000EE901AB4EEE00AF1EEC6
:1011D00010FA02DDC0F8291011E000EE901A00EEBE
:1011E000102AF1EE600AB4EEE00AF1EE10FA06D22F
:1011F00000EE101AB1EE400A10EE101AEAE7D0F82D
:10120000291000EE104A00EE901A70EE200A00EE4F
:10121000103A30EE800A10EE102AC0F83120D0F8D3
:101220001D1000EE102A00EE901AB4EEE00AF1EE66
:1012300010FA02DDC0F8311011E000EE901A00EE55
:10124000102AF1EE600AB4EEE00AF1EE10FA06D2CE
:1012500000EE101AB1EE400A10EE101AEAE7D0F8CC
:10126000310000EE100A10BD000000000000344301
:101270000000B443000034C3002818D000F8011B5C
:1012800011EE101A016011EE901A416012EE101A60
:101290008160002101618161416101634162C1623C
:1012A000816210EE901A016210EE101AC16170474F
:1012B000024600200A4200D0012070471CB50549B3
:1012C0000120CDE900014202002303A1054804F0FA
:1012D0001BF91CBDCC00002073746172745F7461D3
:1012E000736B0000FD480008F0B5002855D00029B8
:1012F00053D00278437842EA0322C2F30A020A80FA
:1013000043788478DB0843EA4413C3F30A034B8031
:101310008478C578A40944EA8504057944EA8524DB
:10132000C4F30A048C80057946796D0845EAC61530
:10133000C5F30A05CD804679C6F301168E7246794B
:10134000B609CE728679C77946EA07268E81067A73
:10135000477A46EA0726CE81867AC77A46EA072682
:101360000E82067B8E74467BCE74867BC77B46EAF4
:1013700007268E82067C407CA2F580620A80A3F557
:1013800080634B80A4F5806446EA00208C80A5F53C
:101390008065CD80A0F580600881F0BD00290168DE
:1013A00002D041F0010101E021F00101016070472C
:1013B0002DE9F043016821F0010101600021016085
:1013C00041608160C1600161212141613C493C4A29
:1013D0003D251039904202D18D60BDE8F083384A36
:1013E0004FF474661832904201D18E60F5E7344AAA
:1013F0004FF474173032904201D18F60EDE7304ADC
:101400004FF0746C4832904202D1C1F808C0E4E752
:101410002B4B2C4A6033984201D1CA60DDE7284C3F
:10142000294B7834A04201D1CB60D6E7DFF8908019
:10143000264C08F19008404501D1CC60CDE7DFF89B
:1014400080804FF03D5908F1A808404502D1C1F80D
:101450000C90C2E71E49DFF878800839404501D179
:101460000D60BAE71A4D1835A84201D10E60B4E7F5
:10147000174D3035A84201D10F60AEE7144D483505
:10148000A84202D1C1F800C0A7E7114D104960354C
:10149000091FA84201D10A609FE70D4A78329042A5
:1014A00001D10B6099E70A4A9032904201D10C6059
:1014B00093E7074AA83290428FD1C1F800908CE799
:1014C000106002403D000020400F002000003D2041
:1014D000106402400029016802D041F4802101E03B
:1014E00021F4802101607047002A026802D042F492
:1014F000002201E022F4002202600161704740688E
:1015000080B27047014600200968090300D5012018
:101510007047000030B50368124ACC6813400A686F
:101520002243D1E905452C432243CC6922430C6A6E
:1015300022434C6A22438C6A22434C6B22438C6BBD
:1015400022431A430260426922F00703D1E90B24C7
:1015500022431A4342610A6942604A68826089688C
:10156000C16030BD3F801CF0416070477047000093
:1015700070B50024194E254604EB440006EBC0006C
:10158000C07C810606D5C00704D0204602F0C8FA08
:10159000012502E0204602F0CBFA641CE4B2082CDC
:1015A000EAD30F4C2088401C80B220801E2805D131
:1015B000012D09D002F014FD00202080012D06D05D
:1015C000BDE8704001F0D2BD02F012FDF4E7BDE8C5
:1015D000704043F698210A2001F0CEBD0509022093
:1015E000E000002000EB400110B5084800EBC1040A
:1015F0002068606003F0C2FF2060E17C8A0603D5AA
:1016000021F02001E174E06010BD00000509022016
:10161000F0B591B00446402218496846FEF7BCFE7A
:101620000022174E17466B4602EB420106EBC10142
:1016300033F832000D8A60F30B050D8203EBC2050F
:10164000B1F81100B5F802C0521C6CF30F10A1F8EC
:10165000110095F804C0C87CAD796CF3440065F3C3
:10166000000040F02000C8744F610C604C608C603A
:10167000D2B2CC60082AD7D311B0F0BDD45800083C
:101680000509022010B5040050D02078F0B30228DC
:101690004DD005284BD0032848D1D4F8F20000EEF5
:1016A000900AD4F8EE0000EE100A04F1470000F0B2
:1016B000A3F910EE100AC4F8020100EE900AD4F863
:1016C000FE0000EE100A04F1B10000F095F9BDEE45
:1016D000C00A10EE100AA4F80E01D4F8F40100EECE
:1016E000900AD4F8F00100EE100A04F2491000F05C
:1016F00083F910EE100AC4F8040200EE900AD4F840
:10170000000200EE100A04F2B31000E00FE000F057
:1017100073F9DFED240AB1EE400A30EE600A00BF33
:10172000BDEEC00A10EE100AA4F8100210BDD4F8E5
:10173000EA0000EE900AD4F8E60000EE100A04F188
:10174000120000F059F910EE100AC4F8FA0000EE89
:10175000900AD4F8F60000EE100A04F17C0000F0C4
:101760004BF9BDEEC00A10EE100AA4F80E01D4F831
:10177000EC0100EE900AD4F8E80100EE100A04F53E
:101780008A7000F039F910EE100AC4F8FC0100EE7E
:10179000900AD4F8F80100EE100A04F5BF7000F0CA
:1017A0002BF9BDE70000FA4310B5040031D0D4F89E
:1017B000060041F662314068C4F8F001D4F8100127
:1017C000008802F027FC10EE100AC4F8E801D4F8F3
:1017D0000A004068C4F8000204F5887000F01EFC9E
:1017E00054F8060F40F688610068C4F8E800A06865
:1017F000008802F00FFC10EE100AC4F8E0006068E8
:10180000006844F8F80FA4F1F000BDE8104000F0C3
:1018100005BC10BD70B504462DED068B02F0A6F98F
:10182000C4F80E0002F09EF9C4F8100102F092F91B
:10183000C4F8060002F092F9C4F80A0002F09AF91E
:10184000C4F80200002565702570B3EE042A9FEDF0
:10185000578AB1EE041AF0EE481AF0EE480A9FEDEE
:10186000540A294604F1470000F086F9B0EE042A34
:10187000F0EE481A9FED4F1AF0EE480ADFED4E8A5F
:10188000002104F11200B0EE680A00F075F9B0EE24
:10189000482A9FED4A9AF0EE491A9FED491ADFED6A
:1018A000499AF0EE690A9FED48AA012104F1B100BE
:1018B000B0EE4A0A00F060F9B0EE482AF3EE0E1AD4
:1018C0009FED421ADFED420ADFED42AA012104F149
:1018D0007C00B0EE6A0A00F04FF99FED3F2AF0EE6F
:1018E000481AB2EE081AF0EE480AB0EE680A002173
:1018F00004F2491000F040F9B0EE002AF0EE481A68
:10190000B7EE001AF0EE480AB0EE680A002104F5BE
:101910008A7000F031F9B0EE482AF0EE491A9FEDD6
:101920002F1AF0EE690AB0EE4A0A012104F2B31050
:1019300000F022F9B0EE482AF2EE041A9FED281AC0
:10194000DFED280AB0EE6A0A012104F5BF7000F04D
:1019500013F92548C4F806012448C4F80A012448AC
:10196000C4F808022348C4F80C02204602F0FCFA2E
:101970002046FFF719FFD4F8EE00C4F8F20044F84F
:10198000EA5F6069A061E0682061D4F80601C4F8EC
:101990000A01C4F80251D4F81601C4F81A01D4F8A7
:1019A0000E01C4F81201BDEC068B70BD00000000F2
:1019B000000016449A99193E0000C843CDCC4C3F14
:1019C00000000C4200007A4400204B460000FA431D
:1019D00000803B4500401C46000048420000204279
:1019E00000004844000048430000A0420000B4C288
:1019F00000007041000070C110B5A0B1D0F81530E2
:101A000010EE101AC0F81930C0F8111010EE901A2C
:101A100030EEC00AC0F80D1010EE101AC0F8151004
:101A200002781AB11DE09FED500A10BD4F4A9FED9C
:101A3000500A914202DCD0F8151007E000EE901A2F
:101A400070EEC00A10EE901AC0F81510494A914283
:101A500007D900EE901A30EE800A10EE101AC0F886
:101A60001510D0F8011000EE901AD0F8151000EE05
:101A7000101A20EE800A00EE901A10EE104AC0F8FC
:101A80002540D0F8292000EE102AD0F8052001EEDC
:101A9000102A01EE200A00EE903A10EE102A00EE15
:101AA000101AC0F82920D0F8091070EE600A00EE74
:101AB000101A20EE800A10EE103A00EE102AC0F83C
:101AC0002D30D0F8211000EE901AB4EEE00AF1EEBD
:101AD00010FA02DDC0F8291011E000EE901A00EEB5
:101AE000102AF1EE600AB4EEE00AF1EE10FA06D226
:101AF00000EE101AB1EE400A10EE101AEAE7D0F824
:101B0000291000EE104A00EE901A70EE200A00EE46
:101B1000103A30EE800A10EE102AC0F83120D0F8CA
:101B20001D1000EE102A00EE901AB4EEE00AF1EE5D
:101B300010FA02DDC0F8311011E000EE901A00EE4C
:101B4000102AF1EE600AB4EEE00AF1EE10FA06D2C5
:101B500000EE101AB1EE400A10EE101AEAE7D0F8C3
:101B6000310000EE100A10BD0000000000003443F8
:101B70000000B443000034C3002818D000F8011B53
:101B800011EE101A016011EE901A416012EE101A57
:101B90008160002101618161416101634162C16233
:101BA000816210EE901A016210EE101AC161704746
:101BB00010B504002DED028BB0EE408A4DD0D4F864
:101BC000E40000EE100AD4F8E000D83400EE900AE9
:101BD00030EE600A00F0B6FA214880ED010A54F8B0
:101BE000200B00EE900A54F8F81970EE600A30EEFF
:101BF000881A00EE901AB4EEE01AF1EE10FA05DD44
:101C0000B5EEC08AF1EE10FA14DC1BE000EE900A8B
:101C1000D4F8FC1070EE600A30EE881A00EE901ACC
:101C2000B4EEE01AF1EE10FA0CD2B5EEC08AF1EE85
:101C300010FA07D200EE901A01EE100A70EE810A37
:101C400030EEC08A54F8E40F00EE100A30EE080AB5
:101C500000F078FA10EE100A2060BDEC028B10BD87
:101C6000B000002010B504002DED028BB0EE408ACC
:101C70004DD0D4F8E40000EE100AD4F8E000D834D7
:101C800000EE900A30EE600A00F05CFA214880ED28
:101C9000000A54F8200B00EE900A54F8F81970EE80
:101CA000800A30EE881A00EE901AB4EEE01AF1EED7
:101CB00010FA05DDB5EEC08AF1EE10FA14DC1BE077
:101CC00000EE900AD4F8FC1070EE800A30EE881A0C
:101CD00000EE901AB4EEE01AF1EE10FA0CD2B5EE66
:101CE000C08AF1EE10FA07D200EE901A01EE100A47
:101CF00070EEC10A30EEC08A54F8E40F00EE100A0C
:101D000030EE080A00F01EFA10EE100A2060BDEC5A
:101D1000028B10BDB0000020002816D0D0F8DC10D7
:101D200000EE901A30EE800A10EE101AC0F8DC10A7
:101D3000D0F8F82000EE101A00EE902AB4EEE00A77
:101D4000F1EE10FA02DDC0F8DC20704700EE101A48
:101D5000D0F8FC1000EE901AB4EEE00AF1EE10FAA2
:101D6000F3D2C0F8DC107047F0B50023012403273C
:101D70000D6804FA03F21540954242D1D0F800C034
:101D80005E0007FA06F52CEA050CC0F800C091F8D1
:101D900004C0D0F800E00CFA06FC4CEA0E0CC0F8C7
:101DA00000C091F804C0BCF1010F02D0BCF1020FD9
:101DB0001FD1D0F808C02CEA050CC0F808C091F873
:101DC00005C0D0F808E00CFA06FC4CEA0E0CC0F88E
:101DD00008C0D0F804C02CEA020CC0F804C0426865
:101DE00091F806C00CFA03FC1FFA8CFC42EA0C02C4
:101DF0004260C268AA43C260CA79C568B2402A4339
:101E0000C2605B1C102BB3D3F0BD4B07DB0E9A40B6
:101E1000C90810B500EB8100016A0F249C40A14362
:101E20000162016A1143016210BD41837047018361
:101E3000704742694A404261704700000248D0F84A
:101E4000E60000EE100A7047F306022000280AD0D0
:101E50000021C0F8111040F80D1FC16081600162BF
:101E6000C161816141627047FEE700001CB501213C
:101E7000702000F07FF94FF48040009001208DF831
:101E8000040000218DF8061003218DF805108DF84F
:101E9000070069460C48FFF767FF4FF400600090A9
:101EA00069460A48FFF760FF02F08AF802F098F8E6
:101EB0004FF4FF74694606480094FFF755FF20462B
:101EC00001F02EFE1CBD0000001402400010024074
:101ED000001802402DE9F043894680468FB016462F
:101EE00001214A4800F046F901218C07204600F004
:101EF0004DF90121204600F055F90021204600F05F
:101F000051F9434D082207212846FFF77EFF08229A
:101F100011462846FFF779FF4FF4C0700490022065
:101F20008DF8140000248DF8164003208DF815005C
:101F30008DF8174004A92846FFF716FF354F38469D
:101F400000F0A0FC4FF4612000902D15ADF8085072
:101F50000C20ADF80440ADF80A00ADF80640ADF82D
:101F60000C406946384600F01BFD012240213846EE
:101F700000F07FFC1021384600F06EFC012240F298
:101F80002441384600F0F3FC0121384600F067FC9C
:101F900052208DF8000001208DF801008DF80240DC
:101FA0008DF80300684600F067F81B4F3846FFF7CE
:101FB000FFF94FF020600090CDE903461548CDE9C8
:101FC0000545001D0794CDE901088015CDE90840BD
:101FD0004002CDE90A040C940D94694638460E94EB
:101FE000FFF798FA002249463846FFF77DFA0121AB
:101FF0003846FFF76FFA00213846FFF7CFF9012185
:102000003846FFF7CBF90FB0BDE8F0831000200091
:1020100000100240007800405860024001680A88C1
:102020000989511A09B211F5805F03DC41F6FF728C
:10203000114405E0B1F5805F03DDA1F5F851FF39EA
:1020400009B200EE101ADFED090A50F8E81FB8EEE9
:10205000C00A9FED071A20EE200A00EE901A00EE4B
:10206000810A10EE101A016070470000ABAA2A3EE8
:102070005555553FFEE7704730B50F22C4780178BB
:102080000123FCB1144C246801F1E02104F4E06464
:10209000C4F5E064C4F30724C4F10405E2404478C5
:1020A000AC408578154025432A0181F8002400784A
:1020B00000F01F018B404009800000F1E020C0F8D3
:1020C000003130BD01F01F0083404809800000F15D
:1020D000E020C0F8803130BD0CED00E0024908433B
:1020E00002490860704700000000FA050CED00E0AE
:1020F00038B54FF44070FFF7F1FF4FF47A7001F0FC
:102100002DFCFFF7B3FE592147F22F5000F0D4FF0A
:102110004FF4FA6001F04EFC01F04AFF0024052361
:102120001A46012120460094FEF746FC05231A4674
:10213000012100200094FEF705FDBDE8384002F0C3
:10214000D5BB000010EE100A0749DFED080A8842EF
:1021500002DD30EE600A704710EE100A0449884232
:10216000F9D930EE200A7047000034430000B44330
:10217000000034C3044A0029116801D0014300E083
:10218000814311607047000030380240044A002942
:10219000116801D0014300E08143116070470000E5
:1021A00040380240044A0029116801D0014300E090
:1021B000814311607047000020380240044A002922
:1021C000116801D0014300E08143116070470000B5
:1021D00044380240044A0029116801D0014300E05C
:1021E00081431160704700002438024070B5204AD6
:1021F0001168204C11F00C0104D01F4E042903D0AB
:10220000082903D004601BE0066019E01849091F83
:102210000B68C3F380550B6803F03F0315B1B6FBA1
:10222000F3F301E0B4FBF3F30C680968C4F388141A
:102230006343C1F30141491C4900B3FBF1F1016063
:1022400011680F2303EA11110C4B5C5C0168E1403B
:1022500041601468072505EA94241C5D21FA04F402
:102260008460126805EA52329A5CD140C16070BD48
:10227000083802400024F400001BB70014000020BE
:102280002DE9F0478A46804690B0914601214648A4
:10229000FFF770FF01211020FFF790FF01211020B0
:1022A000FFF798FF00211020FFF794FF3F4D072212
:1022B00011462846FFF7A9FD8020049002208DF8E2
:1022C000140000248DF8164003208DF815008DF8B9
:1022D000174004A92846FFF747FD354F384600F060
:1022E000D1FA34482D150090ADF80440ADF80850EF
:1022F0000426ADF80640ADF80A60ADF80C4069461A
:10230000384600F04DFB01224021384600F0B1FA7A
:102310001021384600F0A0FA012240F2244138464C
:1023200000F025FB0121384600F099FA25208DF8B0
:1023300000008DF801608DF8024001208DF8030047
:102340006846FFF799FE1C4E3046FFF731F86804E7
:102350000090381DCDE902840190CDF81090CDE9B0
:1023600005458015CDE908404FF44030CDE90A0419
:1023700007940C940D94694630460E94FFF7CAF802
:10238000002251463046FFF7AFF801213046FFF7F3
:10239000A1F800213046FFF701F801213046FEF791
:1023A000FDFF10B0BDE8F0870200400000040240CD
:1023B00000100140A0860100406402401CB50020CE
:1023C0002E49019000900A6842F480320A604FF46E
:1023D000A0430A6802F400320092019A521C019252
:1023E000009A12B9019A9A42F3D10A68920342D52F
:1023F0000120009021484030026842F08052026083
:102400001F48026842F4404202601C4A08321368C6
:102410001360136843F400431360136843F4A0533C
:102420001360141F174B23600B6843F080730B601D
:102430000B689B01FCD5016841F480310160416863
:10244000C903FCD5016841F400310160416889038A
:10245000FCD50D4940F205700860106820F00300BB
:102460001060106840F0020010601068C0F3810036
:102470000228FAD11CBD00901CBD000000380240AB
:1024800000700040062D4008003C02404FF0E02163
:102490000428086903D020F004000861704740F068
:1024A0000400FAE710B503F05BF8012803D0BDE89B
:1024B000104002F09BBD10BD124810B5016841F4F8
:1024C000700101601048016841F0010101600E4A8D
:1024D00000210832116002680C4B1A400260031D93
:1024E0000B4A1A60026822F48022026006480C300F
:1024F0000160FFF763FF03494FF000608039086017
:1025000010BD000088ED00E000380240FFFFF6FE3D
:102510001030002410B50A4C0121204600F02BF8A1
:1025200000280BD00121204600F018F8054801686A
:102530004268491C42F100020160426010BD000087
:1025400000040040E80000200029018802D041F08A
:10255000800101E021F0800101807047C9430182C0
:1025600070470029018802D041F0010101E021F00B
:1025700001010180704702460020138A92890B42B4
:1025800002EA010202D0002A00D0012070470000B8
:1025900030B5028C22F001020284028C8388048B05
:1025A00022F0020224F073050C882C438D89154318
:1025B0004A882A430C4DA84202D00C4DA8420DD1A6
:1025C00022F00805CA8923F440732A4322F0040547
:1025D0008A882A430D8A1D434B8A2B4383800483B8
:1025E00089684163028430BD00000140000401405D
:1025F000028B22F008020A4302837047416370474E
:1026000030B50288164B174C98420DD0A0420BD023
:10261000B0F1804F08D0144DA84205D0134DA84208
:1026200002D0134DA84203D122F070054A882A43F4
:10263000104DA84206D0104DA84203D022F4407598
:102640000A892A4302804A68C2620A88028598423F
:1026500001D0A04201D1897A01860121818230BD59
:102660000000014000040140000400400008004058
:10267000000C004000100040001400402DE9F0471D
:10268000DFF8048140F22441404600F051F900286F
:1026900046D03E4F3846FEF735FF01003E4D3C4CDC
:1026A0003C4EB8F8001008F1040005F1180921802B
:1026B000008820804FF00001384633D0FEF76EFED0
:1026C0003846FEF71CFFC0F11E0020801E21384650
:1026D000FEF74AFF56F8A00F20F4002030600121D9
:1026E0003846FEF75BFE20881A2819D199F81E108B
:1026F000552915D199F83700AA2811D1D5F83700F6
:102700002860D5F83B006860D5F83F00A860D5F890
:102710004300E860D5F847002861D5F84B006861B0
:10272000BDE8F087FEF73AFE3846FEF7E8FEC0F156
:102730001E0020801E213846FEF716FFB06D40F4C3
:102740000020B06501213846FEF728FE20881A28AF
:10275000E6D199F800105529E2D199F81900AA2874
:10276000DED1D5F819002860D5F81D006860D5F8CD
:102770002100A860D5F82500E860D5F82900286177
:10278000D5F82D00CBE700000078004058600240EB
:10279000A4000020006002400005022070B52A4C11
:1027A00040F22441204600F0C3F800284AD0274ECA
:1027B0003046FEF7A7FE0028254D20882880A088F7
:1027C00028804FF000013446304620D0FEF7E6FD69
:1027D0002046FEF794FEC0F12400288024212046E4
:1027E000FEF7C2FE206820F4002020600121204670
:1027F000FEF7D4FD2888122824D1164901F13A00A9
:10280000FEF772FDBDE870400020FEF7EBBEFEF75C
:10281000C5FD2046FEF773FEC0F124002880242168
:102820002046FEF7A1FE206840F400202060012130
:102830002046FEF7B3FD2888122803D1054901F18F
:102840001600DDE770BD000000100140406402404A
:10285000A2000020A0040220C94301807047002983
:10286000818902D041F4005101E021F400518181BD
:102870007047002A828A01D00A4300E08A4382829C
:1028800070470000224910B5884206D1012110206E
:10289000FFF7A0FC0021102020E01E49884202D151
:1028A00001214C0429E01C49884202D101218C04F9
:1028B00023E01A49884202D10121CC041DE01849C5
:1028C000884202D101210C0517E01649884209D13E
:1028D00001212020FFF77EFC00212020BDE81040D0
:1028E000FFF778BC1049884202D101218C0704E02F
:1028F0000E4988420AD1012144052046FFF752FCC7
:102900002046BDE810400021FFF74CBC10BD000080
:10291000001001400044004000480040004C0040CE
:10292000005000400014014000780040007C00404E
:1029300030B501F01F0201240025C1F3421304FA4F
:1029400002F2012B0FD0022B0FD0838A4FEA112104
:102950000088134204FA01F400EA040001D000B137
:102960000125284630BD8389F0E7038AEEE710B5DC
:10297000C1F3421301F01F040121A140012B07D034
:10298000022B07D01430002A026805D00A4304E065
:102990000C30F8E71030F6E78A43026010BD000003
:1029A0007FB50446008A0D4620F44051E88808436C
:1029B0002082A08941F20C618843A9882A891143A9
:1029C0006A8902431143A181A08A20F44071A88939
:1029D0000843A0826846FFF709FC1A48844202D0E7
:1029E0001948844201D1039800E00298A1890904A2
:1029F00000EBC00101EB0010296801D5490000E09F
:102A00008900B0FBF1F26420B2FBF0F109010B097F
:102A10006FF018056B4302EB8302A3891D044FF08E
:102A2000320306D503EBC202B2FBF0F000F0070060
:102A300005E003EB0212B2FBF0F000F00F000843D8
:102A400020817FBD0010014000140140FEE703B467
:102A500001984100009850EAC12018BF04204A0D97
:102A600018BF40F0010040F2FF72B2EB515F08BFA7
:102A700040F00200012808BF052002B070470000A6
:102A800070B59B482DED020B2DED068B079D25F0B3
:102A90000044A04218DC9748844202DC0AD1069820
:102AA00040B19DED060BBDEC068B02B0BDE8704059
:102AB00000F0C6BA002DCCBF9FED8F0B9FED900BA1
:102AC000BDEC068B02B070BD8F48A04215DD8F486B
:102AD000A042D8BF4FF0FF3458DD9DED060B51ECFE
:102AE000100BFFF7B4FF042808BF00F0BDFA9DEDFE
:102AF000060BBDEC068B02B070BD9DED060B51ECD4
:102B0000100B00F0C1FFCDE9060181489FED828BDB
:102B1000A0423CDD8248A0421FDD00249FED82AB35
:102B20009DED060B53EC1A2B51EC100BFDF758FCE6
:102B30009DED060B41EC190B53EC1A2B51EC100BCD
:102B4000FDF7D9FD53EC182BFDF7EBFC53EC192BDB
:102B5000FDF743FECDE9060149E09DED060B01249A
:102B600053EC182B51EC100BFDF73AFC9DED060BC6
:102B700041EC190B53EC182B51EC100BFDF7D1FC69
:102B800053EC192BFDF729FECDE906012FE068482B
:102B9000A0421FDD02249FED689B9DED060B53ECC8
:102BA000192B51EC100BFDF7A6FD53EC182BFDF77C
:102BB00017FC9DED060B41EC180B53EC192B51EC57
:102BC000100BFDF7AEFC53EC182BFDF706FECDE91C
:102BD00006010CE09DED060B032453EC102B9FED3A
:102BE000580B51EC100BFDF7F8FDCDE906019DEDFA
:102BF000060B53EC102B51EC100BFDF77CFD41EC58
:102C0000180B53EC182BFDF776FD41EC190B4E48D1
:102C10000621B0EE490AF0EE690A784400F094F912
:102C200053EC182B51EC100BFDF765FD41EC180B24
:102C30004648B0EE490AF0EE690A0521784400F0F2
:102C400083F953EC192B51EC100BFDF754FD41ECBB
:102C5000100B51EC180B53EC102B002C0EDAFDF777
:102C6000BFFB9DED061B53EC112BFDF744FD9DEDC5
:102C7000061B53EC112BFDF757FC35E0FDF7B0FBBD
:102C80009DED061B53EC112BFDF735FD41EC100BB0
:102C90002F48784400EBC40090ED001B51EC100B62
:102CA00053EC112BFDF73DFC9DED061B53EC112B56
:102CB000FDF737FC41EC100B2648784400EBC400CC
:102CC00090ED001B51EC100B53EC112BFDF72CFC7D
:102CD00041EC100B002DA2BFBDEC068B02B070BD05
:102CE00051EC100B81F0004141EC100B01E70000AA
:102CF000000010440000F07F182D4454FB21F93FE0
:102D0000182D4454FB21F9BF0000DC3F0000203E99
:102D10000000F33F00000000000000000000F03F52
:102D20000000E63F0000000000000000000000403E
:102D30000080034000000000000000000000F83F99
:102D4000000000000000F0BF6235000018350000F0
:102D5000A23400005A34000070B56B4E2DED040B08
:102D60002DED028B82B0DDF81CC0DDE905235C424D
:102D70002CF000411C4341EAD474049D22F0004031
:102D8000B44205D86C422C4340EAD474B4420BD907
:102D90009DED061B9DED040B02B0BDEC028B04B053
:102DA000BDE8704000F056B9ACF14054A4F17F6426
:102DB0001C430BD0022404EAAC7444EAD2740543E9
:102DC0009FED538B9FED542B07D015E09DED040B29
:102DD00051EC100B00F067F942E0002C11BF012C00
:102DE0009DED040B02B0BDEC028B04BF04B070BDBE
:102DF000022C38D0032C3BD00B439FED491B9FED99
:102E00004A0B0AD0B14218D1B04209D121F0804119
:102E100020F08040079105900FE0002A15DA10E0BD
:102E2000434B7B44002C08BF93ED000B0DD0012CCD
:102E300010D0022C17D0032C1AD0B0421DD1002A7A
:102E400003DAB0EE410AF0EE610A02B0BDEC028B8B
:102E500004B070BD93ED000B51EC100B81F00041FC
:102E600041EC100BF1E7B0EE480AF0EE680AECE72F
:102E7000B0EE420AF0EE620AE7E7401A00153C287D
:102E8000C8BF8DED000B19DCBCF1000FBEBF10F107
:102E90003C0F9FED290B8DED000B0FDB9DED060B1D
:102EA00053EC102B9DED040B51EC100BFDF795FC32
:102EB00000F0EAFD00F0F7F8CDE90001002C08BFB2
:102EC0009DED000BC1D0012C10D0022C9FED1C0BEE
:102ED00053EC102B9DED000B51EC100B0DD0FDF7BA
:102EE00020FB53EC182BFDF71CFBB9E7019880F091
:102EF000004001909DED000BA7E7FDF712FB53EC9E
:102F0000182BFDF711FBABE70000F07F000000007D
:102F1000182D4454FB210940182D4454FB2109C0AD
:102F2000182D4454FB21F9BF182D4454FB21F93FBF
:102F30008A330000000000000000000000000000D4
:102F4000075C143326A6A13C70B504462DED028B18
:102F50004D1E00EBC500B0EE408AF0EE608A90EDA9
:102F6000000B35F0060017D053EC182B51EC100B6A
:102F7000FDF7C1FB41EC100B6D1E04EBC50090ED9D
:102F8000001B51EC100B53EC112BFDF729FA41EC0F
:102F9000100B35F00600E7D1022D36D0042D1CD0E1
:102FA000062D1CBFBDEC028B70BD53EC182B51ECF1
:102FB000100BFDF7A0FB94ED0A1B53EC112BFDF752
:102FC0000FFA53EC182BFDF796FB94ED081B53EC0E
:102FD000112BFDF705FA41EC100B53EC182B51ECBB
:102FE000100BFDF788FB94ED061B53EC112BFDF73E
:102FF000F7F953EC182BFDF77EFB94ED040B53EC23
:10300000102BFDF7EDF941EC100B53EC182B51ECA4
:10301000100BFDF770FB94ED021B53EC112BFDF729
:10302000DFF953EC182BFDF766FB94ED001B53EC16
:10303000112BFDF7D5F9BDEC028B41EC100B70BDE7
:1030400010B553EC102B51EC100BFDF7C9F941EC06
:10305000100B10BD10B553EC112B51EC100BFDF7FC
:10306000BFF941EC100B10BD9FED050B10B553ECF3
:10307000102B51EC100BFDF73EFB41EC100B10BD7B
:10308000000000000000001002E008C8121F08C184
:10309000002AFAD170477047002001E001C1121FD9
:1030A000002AFBD1704710B541EC100BFFF7E8FC8C
:1030B00051EC100B10BD0000F0B50D4606468BB06C
:1030C00001214020FFF762F801218020FFF752F82C
:1030D00001214020FFF766F800214020FFF762F849
:1030E000204F092206213846FEF78FFE402000902F
:1030F00002208DF8040003218DF8051000248DF8BE
:1031000006408DF8070069463846FEF72DFE602020
:10311000ADF814000120144FADF81600ADF82040B2
:1031200005A93846FFF734FA08213846FFF760FA58
:1031300001213846FFF708FA6D1E761EADF80850DB
:103140000396ADF80A40ADF8104002A93846FFF7E3
:1031500057FA01213846FFF704FA00F007F80BB0E0
:10316000F0BD0000001C0240001800400021014892
:10317000FFF744BA00180040024A1080014828387E
:10318000FFF73CBA2818004070B500282DED028BDF
:1031900021D000291FD0002A1DD0002B1BD01C7964
:1031A0009FED1B8A8CB1012C0FD0022C16D0032C62
:1031B00011D114461D461A4600F038FA2868808A54
:1031C00041061DD5B7EE080A1EE080ED008A81EDAC
:1031D000008A82ED008ABDEC028B70BD14461D464C
:1031E0001A4600F023FAD5F89B01F0EE480A00EEEB
:1031F000100A05F58970FDF77FFFB1EE400A03E084
:103200000006E8D5BFEE080A84ED000AE3E70000F7
:10321000000000002DE9F04104001CD020790125B8
:1032200098B1002603274FF00208012815D0022884
:1032300025D003280FD1002001F0BCFB01281AD0B3
:103240002068807A032811D104E0002001F0B2FB4D
:10325000002800D12571BDE8F081002001F0AAFB13
:10326000012808D02068807A012806D00228F2D1EF
:1032700084F80480EFE72671EDE72771EBE7002083
:1032800001F098FB0128F6D02068807A0328E1D06D
:103290000128F2D0DFE700003FB504469FED490A60
:1032A00000200090019002900390D4F883014FEA2F
:1032B0000D0200EE900AD4F8870101EE900AB1EEFB
:1032C000602AD4F88B0172EE612A01EE100A9FED9C
:1032D0003E2A002041EE022ACDED002A70EEE12ABE
:1032E00041EE022A9FED392ACDED012A70EEA12A86
:1032F00071EEE00A41EE022A41EE020ACDED022A09
:10330000CDED030A52F82010C0EBC00300EE901A76
:1033100004EB4303F0EEE00AC3F80E10B4EEE00A4B
:10332000F1EE10FA01D2B0EE600A401CC0B20428DF
:10333000E8D310EE100A2649884216DDB0EE0C1ACA
:103340005FF00000C1EE000AC0EBC00104EB4101D8
:10335000401C51F80E2FC0B200EE102A042820EEB7
:10336000200A10EE102A0A60EED30025C5EBC50036
:1033700004EB4000D0F80E10D0F80A0000EE901ACE
:1033800000EE100A352000FB05403E30FDF7B4FE8C
:103390006D1CEDB2042DE9D30020352101FB004165
:1033A000C0EBC002D1F86F1004EB420200EE101A1D
:1033B000401CC0B2BDEEC00A042810EE101A5182A3
:1033C000EBD33FBD00000000CAA105BEF85323BEE9
:1033D0000000604070B504007DD0494B0021F6EE3E
:1033E000000ADFED481A00BFC1EBC10004EB400248
:1033F000D2F8060005880089281A00B2984203DC3A
:1034000041F6FF75284405E0B0F5805F03DDA0F5C7
:10341000F850FF3800B200EE100A52F80A5F491C5B
:10342000B8EEC00A01EE105AC9B2042901EE200A12
:1034300020EE210A10EE100A1060D5D3A269D4F84C
:103440000A1000EE102A00EE901AD4F82600636BE2
:1034500070EE600A00EE100A70EE800A00EE103A7C
:1034600070EEC00AB5EE000A60EE800A10EE905AC7
:1034700000EE901AC4F87751B1EE601A00EE902A6F
:1034800031EE601A00EE900A31EE201A00EE903A0A
:1034900071EE200A60EE800A10EE905A00EE901A4B
:1034A000C4F87B51B1EE601A00EE902A31EE601A3A
:1034B00000EE900A31EE601A00EE903A71EE600A6A
:1034C0009FED111A60EE800A80EE810A10EE100A5C
:1034D000C4F87F0100E011E0FEF7B0FC10EE100A26
:1034E000C4F89B01D4F88301C4F88F01D4F8870194
:1034F000C4F89301D4F88B01C4F8970170BD0000A3
:1035000000F0FFFF05D3023CE17A143E70B50500E0
:103510002DED068B54D00120287100F02BFB9FED80
:103520002A8ADFED2A8A9FED2A9ADFED2A9A9FEDFB
:103530002AAA28600024204600F002FBC4EBC40144
:1035400005EB4101B0EE482AC1F80600352000FB2A
:103550000450F0EE681AB0EE491AF0EE690AB0EEC7
:103560004A0A01213E30FDF787FE641CE4B2042CB8
:10357000E1D3B0EE002ADFED190A9FED191A9FED95
:10358000190AF0EE601A002105F58970FDF774FE46
:103590009FED168A144905F24710B0EE480A00F074
:1035A000A6FA1149B0EE480A091D05F2571000F0BD
:1035B0009EFABDEC068B2846BDE87040FFF70ABFB7
:1035C000BDEC068B70BD000000803B450000F04262
:1035D00000401C4600007A4500606A46000000007A
:1035E000295C0F3D00004843CC5800086F12033B94
:1035F00000281AD041790279914216D010F58971CC
:103600004FF0000209D0C1F8112041F80D2FCA6017
:103610008A600A62CA618A614A62C0F88321C0F87E
:103620008721C0F88B2101794171704770B5140072
:103630002DED028B0D46064673D0002E71D0002D65
:103640006FD02268B2F9060000F10A01152900D2F4
:103650000020B2F9041001F10A03152B00D2002159
:1036600000EE100ADFED300A908AB8EEC00A60EE74
:10367000208A00EE101AC107B8EEC00A20EE208A98
:1036800002D0FFEE068A03E0810701D5F7EE068A35
:10369000410702D59FED258A03E0010701D59FED83
:1036A000248AC10602D59FED230A03E0810605D5D1
:1036B0009FED210A68EE808A28EE008A60B1B0EEA4
:1036C000680A04F2471000F0EBF9B0EE480A04F281
:1036D000571000F0E5F907E018EE900AC4F84B0126
:1036E00018EE100AC4F85B0118EE903A134814491A
:1036F0000022834205DA18EE903A8B4201D2C4F8D8
:103700004B2118EE103A834205DA18EE100A88426F
:1037100001D2C4F85B21D4F84B013060D4F85B01CE
:103720002860BDEC028B70BDFAED6BBA85EBA13F52
:1037300085EBA1BFCDCCCC3F9A99193FBC74133C0B
:10374000BC7413BC30B504002DED048B83B06FD076
:10375000DFED528A0346CDED008ACDED018ACDED35
:10376000028A02AA01A96846FFF70EFD2079022805
:1037700005D003285DD001285BD0E0B362E0DDED29
:10378000000A9DED018A464820EEA00A08EE080ACC
:10379000B5EEC00AF1EE10FA04DBB1EEC01A80ED0E
:1037A000001A01E0C0ED008A10EE900AFCF7BFFE9F
:1037B00041EC190B18EE100AFCF7B9FE41EC100BA6
:1037C000B0EE491AF0EE691AFFF7C6FAD4F89B0179
:1037D000F0EE608A00EE900A9FED321AB0EE408A59
:1037E00080EE810A10EE100AFCF7A1FE53EC182BB4
:1037F000FCF7F6FD00E01CE0FCF7ACFE284D00EE07
:10380000100A85ED010AFCF751FDD5ED000A20EE06
:10381000200A10EE100AC4F8830195ED010AFCF7A6
:1038200081FDD5ED000A20EE200A10EE100A04E01A
:103830002FE00098C4F883010198C4F8870102982A
:10384000C4F88B01D4F88301B0EE041A00EE100A1C
:10385000F8EE040A04F2831400F052F910EE100A94
:103860009FED111A20606068DFED100A00EE100A6B
:1038700000F046F910EE100A9FED0D1A6060A06886
:10388000DFED0C0A00EE100A00F03AF910EE100A13
:10389000A06003B0BDEC048B30BD00000000000050
:1038A000A80000203333654233331340333313C051
:1038B00000003443000034C308B540F2651001F045
:1038C000ADF92548FFF722FE02E0022001F0A6F93B
:1038D000042001F06FF80028F7D1052001F06AF804
:1038E0000028F2D1062001F065F80028EDD107206C
:1038F00001F060F80028E8D101F05CF80028E4D17C
:103900000025154C4FF40076771E1348FFF782FC14
:103910001148FFF76DFE1048FFF75CFD0E48FFF7FA
:1039200011FF0D48FFF7B8FCB4F93C000090B4F962
:103930002E30B4F9202000213046FDF77FF90095A4
:103940000023B4F9122019463846FDF777F9022012
:1039500001F064F9D9E700005405022010B50446CF
:103960006FF00400FEF792FD0F4810490068B0FBAD
:10397000F1F20F490A704FF4FA52B0FBF2F24A60CA
:103980000CB94FF47A74B0FBF4F0C1084FF0E020AA
:10399000026942F002020261491E4161016941F07F
:1039A0000101016110BD00000000002000127A003A
:1039B0009800002070B54FF0E024002265690949A5
:1039C000A36949684843A1699942FCD002D2A3EB9C
:1039D000010302E0A5EB010633441A440B46824280
:1039E000F1D370BD9800002001F0C8FD234C606049
:1039F000FDF70EFE392001F011F9214D01F0BEFD59
:103A00000022606002EB420105EBC101CB7CDE07C6
:103A10002BD0CE68B1F81170861BB6EB171F03D2FE
:103A200023F02003CB7420E00E68B1F810C0871B90
:103A3000CCF30B0C674506D99E0616D443F0200341
:103A4000CB74886011E023F02003CB744B689E4256
:103A50000BD9F31A00EE103A9FED0A1AF8EE400A5D
:103A600081EE200A10EE103A4B61521C082AC9DB85
:103A7000FDF77EFD0A2001F0D1F8BFE7E00000204D
:103A80000509022000007A4482B0CDE9000121F04E
:103A9000004001909DED000B02B051EC100B7047FF
:103AA00010B510EE103A03608168C26800EE101A7B
:103AB00000EE902A446830EE201A00EE101AC0EE94
:103AC000010A00EE104A20EE801A00EE101A00EEF5
:103AD000902A70EE201A00EE102AC0EE210A00EEA5
:103AE000103A00EE801A11EE101A416010BD10EE6F
:103AF000102AC2600968816000210160416070473E
:103B0000B4EEE00AF1EE10FA02D2B0EE600A7047AD
:103B1000B4EEC10AF1EE10FAF9DDB0EE410A7047D9
:103B20004FF48071C1400148FEF781B9001802408E
:103B30004FF48071C1400148FEF777B90018024088
:103B400000F00300024900EB800001EB40007047E9
:103B500078040220004870470005022000487047A2
:103B60000C050220004870476E0402200048704790
:103B70006404022000487047A00402202DE9F041AF
:103B80000D4606007ED0002D7CD0002A7AD0D2F8D7
:103B900002000023404CB0F9001001F10A07152F74
:103BA00001D3E18000E0E380B0F9021001F10A07DF
:103BB000152F01D3218100E02381B4F90610DFED38
:103BC000381A00EE101AB0F90C10F8EEC00A9FED8A
:103BD000330A01EE101A60EE800AB8EEC11A41EE07
:103BE000610A9FED301AC4ED030AB4F90810B0F968
:103BF0000E0000EE901AF8EEE00A20EE800A00EEC9
:103C0000900AF8EEE00A00EE810A84ED040A1078CA
:103C100050B19FED250A01280CD0022812D00328AC
:103C20002DD0042814D02AE01B491031081F00F0C1
:103C3000C7F824E018490C31081D81ED000A80ED19
:103C4000000A1CE014480C30011D80ED000A14E04D
:103C5000D2F8E831DFED150A00EE103A0E490C31CA
:103C600020EE200A081DDFED120A80ED000AD2F8CE
:103C7000E60000EE100A20EE200A81ED000A94ED25
:103C8000030A00E005E086ED000A94ED040A85EDE4
:103C9000000ABDE8F0810000B8000020348037BA87
:103CA000BC74933B5BB1BF3B000000006F1283BB51
:103CB0006F1203BC2DE9F041040020D020783E4D66
:103CC0004FF000080226E0B10127012848D0032563
:103CD0004FF0050802284CD003285CD0052801D0FD
:103CE00004280CD1002000F065FE012860D0D4F833
:103CF0000200807A03285DD0022800D12570BDE83B
:103D0000F081688840F2DC51884201D2401C688012
:103D1000D4F8E60000EE100A2848B0EEC00A10EE13
:103D2000102A82420EDAD4F8E82100EE102AB0EE12
:103D3000C00A10EE102A824204DAA888642801D250
:103D4000401CA8806888884202D2A8886428D6D3FC
:103D5000A5F80480A5F80280267085F80080CEE7DB
:103D6000002000F027FE0028C9D184F800802F70C1
:103D7000C5E7002000F01EFE012800D12770D4F80E
:103D80000200817A022900D12570807A0128B6D1FB
:103D900084F80080B3E7002000F00CFE012800D179
:103DA0002770D4F80200817A0329EED12670ECE75F
:103DB0002770A4E72670A2E7B8000020CDCCCC3D48
:103DC00030B5002822D0002920D0002A1ED0164B62
:103DD0009FED160A9FED161A1B78002BD2F8E831DA
:103DE00015D100EE903A134DF1EE600AF0EEE00AC4
:103DF00010EE904AAC420ADD00EE903A20EE800AC6
:103E000081ED000A9FED0C0A80ED000A30BD00EE46
:103E1000903A20EE800A81ED000AD2F8E61000EE1A
:103E2000101A20EE010AEFE7B80000206F1283BBE2
:103E30006F1203BCCDCCCC3D000000002DED028BF9
:103E400082B0C92000F0EAFE4548FDF7E3FC444C8F
:103E500004F10E0604F5887502E0022000F0DEFE93
:103E6000012000F0A7FD0028F7D1022000F0A2FDFC
:103E70000028F2D127469FED3B8A3948FFF71AFF09
:103E8000374C60782178884224D0D4F8F001C4F807
:103E9000F401D4F8E801C4F8EC01D4F80002C4F845
:103EA0000402D4F8F801C4F8FC01D4F8EE00C4F818
:103EB000F200D4F8E600C4F8EA00D4F8FE00C4F832
:103EC0000201D4F8F600C4F8FA00204600F04CF8DD
:103ED000207860702248FDF767FC214C8DED008A48
:103EE0008DED018A224601A96846FFF747FE20783A
:103EF000022805D0052803D010B103280BD016E006
:103F00009DED000A3046FDF707FF9DED010A2846AA
:103F1000FDF702FF0BE09DED000A3046FDF7A2FE23
:103F20009DED010A2846B1EE400AFDF741FE0C481E
:103F3000FDF7A8FB387801280CD00023B7F9101240
:103F4000B7F90E014FEA0302FCF7A0FE022000F0D1
:103F500065FE92E700231A4619461846F4E700006A
:103F6000F30602200000000010B504464730FDF7BC
:103F70006DFF04F11200FDF769FF04F1B100FDF7D8
:103F800065FF04F17C00FDF761FF04F24910FDF7C5
:103F90005DFF04F58A70FDF759FF04F2B310FDF7D9
:103FA00055FF04F5BF70BDE81040FDF74FBF00009E
:103FB00002491E22A1F11E00FDF78CBF360502202A
:103FC0004FF480410148FDF732BF00000014024069
:103FD0004FF480410148FDF72CBF0000001402405F
:103FE0004FF400610148FDF722BF000000100240BD
:103FF0004FF400610148FDF71CBF000000100240B3
:10400000FEF776F86420FFF7D5FCFDF757F900F0CE
:104010000FFFFEE7401AB0F5805F03DDA0F5F85012
:10402000FF3805E010F5805F02DA41F6FF710844C1
:1040300000EE100ADFED030AB8EEC00A20EE200AF7
:10404000704700000000343D2DE9F041184C0F4648
:104050000546E6682068001D00F0D7FC38B92068E6
:1040600090F82C1001208840216981432161681C4F
:1040700007D137B12168BDE8F0410E48091D00F0B5
:10408000FCBC20683544B5424560216805D2A06B70
:10409000BDE8F041091D00F0D8BC606B091D00F0BF
:1040A000D4FCA06A854200D2A562BDE8F081000080
:1040B00024000020000400202DE9F041054600F016
:1040C000E9FC2D4CA068401CA06020682B4F10B16B
:1040D000606930B32BE02560A068012827D1002655
:1040E00006EB860007EB800000F0A1FC761C202E7A
:1040F000F6D3234800F09BFC2148143000F097FCD5
:104100001F48283000F093FC1D483C3000F08FFC25
:104110001B48503000F08BFC194860631430A063DA
:1041200005E02068E96AC06A884200D82560606AB4
:10413000401C60626864E96A01202269884010437B
:10414000206101EB810007EB8000291D00F095FC48
:1041500000F0C0FC606900280CD02068E96AC06AE1
:10416000884207D207494FF080500860BFF34F8F55
:10417000BFF36F8FBDE8F0812400002030010020E4
:10418000B003002004ED00E010B500F083FC0E4CFD
:104190002068A0B90D4800F04AFC0C48143000F02B
:1041A00046FC0A48E0601430206100220C210A20FD
:1041B00000F032FF206010B105A100F0F9FCBDE86D
:1041C000104000F087BC00006000002014040020B4
:1041D000546D72510000000070B5114E114C17E083
:1041E00000F05EFE3068B8B101F0BAFA00F052FC9F
:1041F000F068C568281D00F008FCA068401EA0609B
:104200006068401E606000F065FC284600F055F8CC
:1042100060680028E4D170BD01F0A2FAF8E7000060
:10422000EC0300202400002030B4026C0B46002A6E
:104230000BD0C1681144C1604468A14201D3016838
:10424000C16030BC1846FCF7A7B830BC70472DE9F8
:10425000F041856B174604460026026C82B1C7B157
:10426000E068FCF799F8E168206C091AE1602268BF
:10427000914202D26168081AE060022F16D017E05E
:104280002068A8B9606801F0E3F906460020606084
:104290000EE0A068FCF780F8216CA0680844A060DC
:1042A0006168884204D32068A06001E005B16D1EFA
:1042B0006D1CA5633046BDE8F08110B50446006B67
:1042C00000F01CFC2046BDE8104000F017BC0000C8
:1042D00010484FF40031420706D0C01D0D4920F0B0
:1042E0000700411AC1F500310B4A00230144C2E91D
:1042F00000030839103A21F0070111604B600B6090
:104300000B1AC0E9001393604FF000405360D06077
:10431000704700003C04002084000020074C4FF050
:104320008056074DFFF758FF20680128FAD92E6004
:10433000BFF34F8FBFF36F8FF4E700003001002011
:1043400004ED00E02DE9F0470E46DDE9098417464B
:10435000824691009946089DA522206BFCF72EF815
:104360006FF00301206B01EB8701084420F0070781
:10437000780707D0502080F31188BFF34F8FBFF329
:104380006F8FFEE72218315C82F83410315C11B176
:10439000401C1028F6D3002684F84360202D00D35B
:1043A0001F25E562C4E91356201D00F04BFB04F104
:1043B000180000F047FB2461C5F120006462A06191
:1043C000666584F858604A465146384600F078FAE7
:1043D0002060B8F1000F01D0C8F80040BDE8F087B8
:1043E00030B5114900E011460A688242FBD34B68A0
:1043F0005C18844203D1406818444860084643680A
:104400001C18944209D1084C103C2468A24209D0DF
:1044100052681A4442600A6812680260814200D001
:10442000086030BD0460F9E78400002070B5002406
:1044300041600B4D0061914206D8D11A82699142C8
:1044400006D2011D286907E09A4203D2994201D39E
:10445000012403E0011DE86800F0F7FA204670BD72
:104460006000002010B5044600F014FBA06B28B1DA
:104470005FF0000400F02EFB204610BD0124F9E798
:1044800073B500260098846C5CB1A26BE06B82422D
:104490000FD3502080F31188BFF34F8FBFF36F8F7E
:1044A000FEE7502080F31188BFF34F8FBFF36F8F6B
:1044B000FEE7A26B82420CD294F945500A46694647
:1044C0002046FFF7C4FE0646681C04D06D1C84F825
:1044D000455030467CBD606A0028FAD004F12400C3
:1044E00001F002F90028F4D00126F2E730B587B0D8
:1044F0002B4D4BE00498002848DB069C606910B106
:10450000201D00F082FA02A800F0B6F802460498D6
:104510000A283BD2DFE800F00505053A26370505F5
:104520003A260598A169034601442046FFF77EFF1D
:1045300000B3616A20468847E069012826D100203F
:1045400000900598A169002342181946204601F001
:104550008DF978B9502080F31188BFF34F8FBFF3E6
:104560006F8FFEE70598A06128B181181346204699
:10457000FFF75CFF0AE0502080F31188BFF34F8FF4
:10458000BFF36F8FFEE7204600F0B8FA00231A460B
:1045900004A9286800F06CFD0028ABD107B030BD3D
:1045A000600000202DE9FC410F46054600F078FC34
:1045B00001A800F061F80446019818B101F0D0F8A4
:1045C000BDE8FC81224EAFB130690068A8B3002776
:1045D000291B3A46306800F0FFFA01F0C1F80028C4
:1045E000EED11C494FF080500860BFF34F8FBFF3EE
:1045F0006F8FE5E7A542EBD801F0B2F8F0682746E7
:10460000C068C468201D00F000FAE069012810D1DC
:10461000A0692B4641193A462046FFF707FF40B1F3
:1046200000200346014600902A46204601F01EF96C
:1046300020B1616A20468847C2E707E0502080F336
:104640001188BFF34F8FBFF36F8FFEE70127BFE7DE
:104650006000002004ED00E00648416B096829B1C4
:10466000416BC968C9684968816270474FF0FF3182
:10467000FAE700002400002070B5054600F07EFF38
:10468000064E0446B068844203D200F009F80120C7
:1046900000E0002028602046B46070BD600000206B
:1046A000F8B5194D1FE0C068C4680668201D00F009
:1046B000ACF9616A20468847E069012813D1A069F6
:1046C0003044B04206D924616060211DE86800F0E2
:1046D000BCF908E00020034601460090324620461F
:1046E00001F0C4F838B1E86801680029DBD1296914
:1046F000C5E90310F8BD502080F31188BFF34F8F38
:10470000BFF36F8FFEE7000060000020084840689C
:10471000401C4FF0500080F3118804D0BFF34F8F3E
:10472000BFF36F8FFEE7BFF34F8FBFF36F8FFEE7CF
:104730008C000020074CE068016841B1C06800218E
:10474000D0F80000FFF72EFFFFF7D0FEF3E70121BE
:104750000020F7E7600000202DE9F041044600F05A
:1047600099F994F9455004F1240610E0A06C20B1A9
:1047700000212046FFF784FE04E0606A48B130461D
:1047800000F0B2FF08B100F0C5FA6D1E6DB2002D49
:10479000ECDC4FF0FF3684F8456000F09BF900F048
:1047A00079F994F9445004F1100709E0206948B1FF
:1047B000384600F099FF08B100F0ACFA6D1E6DB2FA
:1047C000002DF3DC84F84460BDE8F04100F082B9CC
:1047D0002DE9F0410546002700F062FB314E3068BC
:1047E00008B9FFF775FDF06805424BD1C5B3083530
:1047F00068070ED005F00700C0F1080005446807FF
:1048000007D0502080F31188BFF34F8FBFF36F8F15
:10481000FEE72DB37068854234D822481030014637
:104820000C6801E020460C466168A94202D221686A
:104830000029F7D131688C4224D0076821680160D3
:1048400060680837411B10290FD96019420708D04A
:10485000502080F31188BFF34F8FBFF36F8FFEE7B7
:1048600010E041606560FFF7BBFD61687068401A49
:104870007060B268904200D2B060F06801430020DE
:10488000C4E9000100F06CFF780707D0502080F3E6
:104890001188BFF34F8FBFF36F8FFEE73846BDE837
:1048A000F0810000740000200449086818B108680D
:1048B000026D521C02650868704700002400002049
:1048C00010B5031F4FF080741C601B1F21F0010105
:1048D0001960191F044B0B6014390A60091F6FF02F
:1048E000020244380A6010BD0D4700080249242224
:1048F000A1F12400FDF7C4BCDA0402201CB500F0CD
:10490000C9F81B490520CDE900014FF400740023CC
:10491000224618A11A4800F0F7FD154904200C3969
:10492000CDE900010023224616A1194800F0ECFD54
:104930000F4903200839CDE900010023224615A1C3
:10494000174800F0E1FD0A490220091FCDE90001E6
:104950000023782213A1164800F0D6FD0448103831
:10496000006800F081F9BDE81C4000F0B3B8000019
:10497000DC00002047696D62616C5461736B00005C
:104980003D3E0008436861737369735461736B0043
:10499000B93800084465746563745461736B000032
:1049A000E9390008557365725461736B00000000AB
:1049B000CD490008044900EB400001EBC000C07C79
:1049C000C0F3401070470000050902204FF47A74CC
:1049D0000020FFF7EFFF78B90420FFF7EBFF58B98D
:1049E0000520FFF7E7FF38B90620FFF7E3FF18B906
:1049F0000720FFF7DFFF10B1FFF7E2FAE8E7FFF764
:104A0000E7FA204600F00AF9E2E7D0E9013201694D
:104A10009A60D0E901235A604A68824201D18268D3
:104A20004A60002202610868401E0860704700F179
:104A300008014FF0FF32C0E90112C160016100219D
:104A40000160704700210161704730B50B685A1C46
:104A500002D000F1080202E0026904E02246546834
:104A600025689D42FAD953684B6099608A6051600D
:104A700008610168491C016030BD42684A60936862
:104A80008B6093685960916008610168491C0160FE
:104A900070470000502080F31188BFF34F8FBFF3A1
:104AA0006F8F0A494868401C486001280CD10848AB
:104AB000006810F0FF0F07D0502080F31188BFF37B
:104AC0004F8FBFF36F8FFEE7704700008C00002010
:104AD00004ED00E00849486828B1401E486001D153
:104AE00080F311887047502080F31188BFF34F8FF7
:104AF000BFF36F8FFEE700008C00002070B5002828
:104B000027D0144DA0F108046168E868014207D17C
:104B1000502080F31188BFF34F8FBFF36F8FFEE7F4
:104B200022683AB1502080F31188BFF34F8FBFF352
:104B30006F8FFEE78143616000F0B2F960686968D9
:104B4000084468602046FFF74BFCBDE8704000F069
:104B500007BE70BD740000207047000010B5FBF761
:104B600087FB114910280ED300F1E02090F8F003E4
:104B70000A78904207D2502080F31188BFF34F8FFC
:104B8000BFF36F8FFEE709480068896800F4E060B2
:104B9000884207D9502080F31188BFF34F8FBFF3AD
:104BA0006F8FFEE710BD00008C0000200CED00E0D0
:104BB00010B5084B002200BF53F832401CB1521C04
:104BC000082AF9D310BD43F8321003EBC201486044
:104BD00010BD0000F000002070B515460E460446DA
:104BE000FFF758FF94F944100020491C01D184F8C4
:104BF000440094F94510491C01D184F84500FFF7A1
:104C000069FFA06B28B92A46314604F1240000F060
:104C10009FF82046BDE87040FFF79EBD10B502002A
:104C200014D00F48006B38B1502080F31188BFF3C7
:104C30004F8FBFF36F8FFEE700F032F9002110466F
:104C4000FFF702FA00F08CFD002807D105494FF06C
:104C500080500860BFF34F8FBFF36F8F10BD00000F
:104C60002400002004ED00E070B50546FFF712FFB8
:104C7000244C05B92568281DFFF7C7FE58B9E86A16
:104C8000214A00EB800152F8211021B90121814015
:104C9000206988432061A86A18B105F11800FFF760
:104CA000B4FE606A401C60622068854207D1291DFD
:104CB0001648FFF7E2FE6068401C606007E0A068ED
:104CC000401EA0602846FFF7F8FAFFF7C5FCFFF783
:104CD00001FF6069002814D02068854211D1206B43
:104CE00038B1502080F31188BFF34F8FBFF36F8F1F
:104CF000FEE707494FF080500860BFF34F8FBFF3C6
:104D00006F8F70BD2400002030010020EC030020D4
:104D100004ED00E001490120C86170472400002033
:104D200010B50C4650B1094909681831FFF78DFEDE
:104D30002046BDE810400121FFF786B9502080F3DE
:104D40001188BFF34F8FBFF36F8FFEE72400002061
:104D500070B514460D4668B10A4909681831FFF765
:104D60008CFE0CB14FF0FF3521462846BDE870405F
:104D7000FFF76AB9502080F31188BFF34F8FBFF35C
:104D80006F8FFEE72400002070B5040039D01D4D60
:104D9000E06A2968C96A884233D2A069002804DB26
:104DA0002868C06AC0F12000A061E16A164E01EBDC
:104DB0008101606906EB810188421FD1201DFFF748
:104DC00024FE012150B9E06A00EB800256F822204F
:104DD00022B92A6901FA00F082432A612868C06A70
:104DE000E0622A6981401143296100EB800006EBF3
:104DF0008000211DBDE87040FFF73FBE2868C06AF3
:104E0000E06270BD240000203001002028B1074975
:104E10000A6A0260C96841607047502080F31188B7
:104E2000BFF34F8FBFF36F8FFEE700002400002019
:104E30001CB517480024CDE900402346802215A167
:104E4000164800F061FB012803D100F0EBFC0128BB
:104E500009D0401C1AD1502080F31188BFF34F8F26
:104E6000BFF36F8FFEE7502080F31188BFF34F8FA1
:104E7000BFF36F8F06484FF0FF312C38816201215C
:104E80004161C460BDE81C4000F040B81CBD00009A
:104E90005000002049444C45000000001D4300081C
:104EA0000248016B491C0163704700002400002088
:104EB0001448016B11B10121C16170470021C1612A
:104EC0000169B1FA81F1C1F11F0101EB81020E49C3
:104ED00051F822306BB101EB820101F108034A68FD
:104EE00052684A609A4201D152684A60D1680160B2
:104EF0007047502080F31188BFF34F8FBFF36F8F3F
:104F0000FEE7000024000020300100201CB53248DC
:104F10000168324A914207D1502080F31188BFF3D3
:104F20004F8FBFF36F8FFEE700682C49491E884200
:104F300007D1502080F31188BFF34F8FBFF36F8FDD
:104F4000FEE7274908780190FF20087008788DF85F
:104F500000009DF800009DF8002000F0F000904255
:104F600007D0502080F31188BFF34F8FBFF36F8FAE
:104F7000FEE79DF800001B4C00F050002070072059
:104F8000A06005E09DF8002052008DF80020401E32
:104F90009DF800201206F5D4000200F4E060A06045
:104FA000019808700C482030016841F470010160DC
:104FB000016841F070410160FFF7CEFD00206060A4
:104FC000FBF71EF90848016841F040410160FBF71A
:104FD00007F900201CBD000000ED00E071C20F4188
:104FE00000E400E08C00002034EF00E010B5502019
:104FF00080F31188BFF34F8FBFF36F8F00F0C4FAB7
:1050000018B104494FF080500860002080F31188E7
:1050100010BD000004ED00E02DE9F04117460E46FA
:10502000050018D0FEB105FB06F05430FFF7D0FBA9
:1050300004000ED004F15400BEB12060C4E90F5644
:105040002046012100F0CAF884F850700021204663
:10505000A164BDE8F081502080F31188BFF34F8F29
:10506000BFF36F8FFEE70020DFE72460E6E7000074
:105070002DE9FF4F002683B09B468A46040003D0EB
:10508000BAF1000F08D011E0502080F31188BFF36F
:105090004F8FBFF36F8FFEE7206C38B1502080F345
:1050A0001188BFF34F8FBFF36F8FFEE700F058FA00
:1050B000DFF824814FF000094FF0805748B9059878
:1050C00038B1502080F31188BFF34F8FBFF36F8F3B
:1050D000FEE7FFF7DFFCA56B45B351462046E668C7
:1050E000FFF7A2F8BBF1000F13D0E660606A50B181
:1050F00004F1240000F0F8FA28B1C8F80070BFF3FA
:105100004F8FBFF36F8FFFF7E5FC012007B0BDE8BD
:10511000F08F6D1EA563206810B9FFF7C5FB6060B6
:1051200020690028EFD004F11000E3E7059808B1EA
:105130001EB106E0FFF7CEFC27E06846FFF766FEEB
:105140000126FFF7C7FCFFF7ABFEFFF7A3FC94F9BE
:105150004400401C01D184F8449094F94500401C5F
:1051600001D184F84590FFF7B5FC05A9684600F029
:1051700095F9002820460AD0FFF7EEFA00F0F0FA81
:105180002046FFF76FF90028A3D00020BEE7FFF705
:1051900069F9D8B1206830B9FFF77CFC6068FFF787
:1051A000F3FDFFF797FC04F124000599FFF7B8FD24
:1051B0002046FFF7D1FA00F0D3FA002889D1C8F8C9
:1051C0000070BFF34F8FBFF36F8F82E72046FFF76A
:1051D000C3FA00F0C5FA7CE704ED00E070B50D46B7
:1051E000040025D0FFF756FCD4E90F20216802FB0C
:1051F000001161600021A1632168A1600A46D4E921
:105200000F01401E00FB0121E16021464FF0FF30FD
:1052100001F8440F487004F110008DB1FFF707FC4E
:1052200004F12400FFF703FCFFF754FC012070BDDC
:10523000502080F31188BFF34F8FBFF36F8FFEE7CD
:1052400021690029F0D000F04FFA0028ECD0044981
:105250004FF080500860BFF34F8FBFF36F8FE3E7CD
:1052600004ED00E02DE9FF4782B01D468A464FF06D
:105270000008040003D0BAF1000F08D011E050205C
:1052800080F31188BFF34F8FBFF36F8FFEE7206C61
:1052900038B1502080F31188BFF34F8FBFF36F8F69
:1052A000FEE7022D0AD1E06B012807D0502080F3E1
:1052B0001188BFF34F8FBFF36F8FFEE700F050F9F7
:1052C000424F4FF000094FF0805648B9049838B16A
:1052D000502080F31188BFF34F8FBFF36F8FFEE72D
:1052E000FFF7D8FBA06BE16B884207D3022D05D0F6
:1052F000049808B3B8F1000F21D025E02A465146A2
:105300002046FEF7A4FFA16C21B129462046FFF7F5
:10531000B7F805E0616A19B104F1240000F0E4F97E
:1053200020B13E60BFF34F8FBFF36F8FFFF7D2FB0B
:10533000012006B0BDE8F087FFF7CCFB22E068460D
:10534000FFF764FD4FF00108FFF7C4FBFFF7A8FD6E
:10535000FFF7A0FB94F94400401C01D184F844906D
:1053600094F94500401C01D184F84590FFF7B2FB49
:1053700004A9684600F092F830B12046FFF7ECF936
:1053800000F0EEF90020D4E7FFF784FBA06BE16B9F
:10539000884213D1FFF79EFB04F110000499FFF738
:1053A000BFFC2046FFF7D8F900F0DAF9002897D1C2
:1053B0003E60BFF34F8FBFF36F8F91E7FFF78AFB1C
:1053C0002046FFF7C9F900F0CBF989E704ED00E0CA
:1053D0002DE9F047984617468946040003D0B9F1F5
:1053E000000F08D011E0502080F31188BFF34F8FD9
:1053F000BFF36F8FFEE7206C38B1502080F3118827
:10540000BFF34F8FBFF36F8FFEE7B8F1020F0AD1E2
:10541000E06B012807D0502080F31188BFF34F8F35
:10542000BFF36F8FFEE7FFF799FB5020EFF3118674
:1054300080F31188BFF34F8FBFF36F8FA06BE16BC9
:10544000884207D3B8F1020F04D0002086F31188F8
:10545000BDE8F08794F94550424649462046FEF79C
:10546000F6FE681C04D06D1C84F845500120EDE761
:10547000A06C012520B141462046FFF701F806E067
:10548000606A0028F2D004F1240000F02DF9002811
:10549000ECD0002FEAD03D60E8E7000070B50D4683
:1054A000040019D005B3FFF7F5FA164AD168286849
:1054B000431C0FD02368126A934202D062688A426A
:1054C0001AD96268891A814216D2401A2860204689
:1054D000FFF79CFC002410E0502080F31188BFF3FC
:1054E0004F8FBFF36F8FFEE7502080F31188BFF31B
:1054F0004F8FBFF36F8FFEE70124FFF7EBFA2046D3
:1055000070BD0000240000202DE9FF5F8346DDE927
:105510000E87994616468A469000FFF759F905000E
:105520001AD05C20FFF754F9040012D02563002143
:10553000CDE90241CDE900874B46324651465846F7
:10554000FEF700FF2046FEF7B7FD012004B0BDE8DE
:10555000F09F2846FFF7D2FA4FF0FF30F6E7000041
:105560000548416919B1006B18B10020704701204E
:105570007047022070470000240000200148C068E6
:1055800070470000240000202DE9F0412E4C002738
:10559000206B40B1A069401CA061E06900B1012707
:1055A0003846BDE8F081E668761CE66013D1606B92
:1055B000006838B1502080F31188BFF34F8FBFF3DC
:1055C0006F8FFEE7606BA16B6163A063206A401C74
:1055D0002062FFF741F8A06ADFF87080864209D3A5
:1055E000606B006880B1606BC068C568686886429F
:1055F0000DD2A0622068C06A00EB800158F821003B
:105600000128CAD90127C8E74FF0FF30F1E7281D6C
:10561000FFF7FBF9A86A18B105F11800FFF7F5F9D3
:10562000E86A0121226981401143216100EB800178
:1056300008EB8100291DFFF720FAE86A2168C96A92
:105640008842CDD30127CBE7240000203001002081
:1056500070B504004FF0000140D0214D286884420D
:1056600007D0502080F31188BFF34F8FBFF36F8FA7
:10567000FEE7206D38B1401E2065E36CE26A9A4275
:105680002CD040B12AE0502080F31188BFF34F8F17
:10569000BFF36F8FFEE7201DFFF7B7F9114A012115
:1056A00050B9E06A00EB800352F8233023B92B692C
:1056B00001FA00F083432B61E06CE062C0F120004E
:1056C000A061E06A2B6981401943296100EB8000E9
:1056D00002EB8000211DFFF7D0F90121084670BDC3
:1056E00024000020300100202DE9F041C068C4688A
:1056F000ACB104F118000746FFF787F9154D286B88
:105700000126A0B139461448FFF7B7F9E06A2968C5
:10571000C96A88421BD90120EE61BDE8F0815020A2
:1057200080F31188BFF34F8FBFF36F8FFEE7201D0B
:10573000FFF76BF9E16A2A6906FA01F01043286164
:1057400001EB8100054901EB8000211DDCE7002011
:10575000E3E7000024000020D803002030010020EF
:105760002DE9F0472C4D00242746286B38B1FFF770
:1057700091F9286B401E2863286B40B146E0502009
:1057800080F31188BFF34F8FBFF36F8FFEE7A968D7
:10579000224E0120D1B3A6F52A7980463068E8B1BF
:1057A000F068C46804F11800FFF72FF9201DFFF717
:1057B0002CF9E06A2A6908FA00F11143296100EB2B
:1057C000800109EB8100211DFFF757F9E06A296884
:1057D000C96A8842E2D3C5F81C80DFE70CB1FEF746
:1057E0003BFFAC6944B14646FFF7CEFE00B1EE6127
:1057F000641EF9D10020A861E86938B10849012781
:1058000038070860BFF34F8FBFF36F8FFFF762F960
:105810003846BDE8F087000024000020D8030020AF
:1058200004ED00E01CB5FEF7AFFC0C48006860B169
:105830000A490220091DCDE90001C201002308A187
:105840000948FFF761FE002807D1502080F3118836
:10585000BFF34F8FBFF36F8FFEE71CBD60000020CA
:10586000546D72205376630035470008FEB51E461E
:1058700013460200089D4FF0000014D0124C276818
:10588000002F0FD0CDE900130292062915DAFFF799
:1058900067FE02284FF000030DD000226946206801
:1058A000FFF7E0FCFEBD502080F31188BFF34F8F5F
:1058B000BFF36F8FFEE72A46F0E7002332466946C2
:1058C0003846FFF785FDFEBD60000020ABAA2A3EEA
:1058D000ABAAAA3E1E0028000F0001000200030030
:1058E0000E000100020003000D0001000A000A0082
:1058F0000C0000000A000A000B0001000A000A0068
:105900000A0001000A000A00090001000A000A005A
:105910000800010000000000920E493CB10AC93C99
:105920002BC3163D2EFB483D752B7B3D04A9963DB0
:1059300080B6AF3D36BDC83D2FBCE13D73B2FA3DE8
:1059400087CF093E8340163EB5AB223EA2102F3EC4
:10595000CF6E3B3EC2C5473E0115543E135C603ED0
:105960007F9A6C3ECCCF783EC07D823E938E883E3F
:10597000229A8E3E32A0943E86A09A3EE59AA03EA0
:10598000128FA63ED47CAC3EEF63B23E2A44B83EB2
:10599000491DBE3E15EFC33E53B9C93ECA7BCF3E3B
:1059A0004136D53E80E8DA3E4F92E03E7533E63E22
:1059B000BBCBEB3EEA5AF13ECBE0F63E275DFC3E28
:1059C000E4E7003F3D9C033F824B063F9BF5083FC9
:1059D0006B9A0B3FDA390E3FCDD3103F2A68133F45
:1059E000D9F6153FC07F183FC6021B3FD17F1D3F30
:1059F000CBF61F3F9967223F25D2243F5636273FDB
:105A00001594293F4AEB2B3FDE3B2E3FBB85303FB1
:105A1000C9C8323FF304353F233A373F4268393F24
:105A20003B8F3B3FF9AE3D3F67C73F3F70D8413F9B
:105A300001E2433F03E4453F65DE473F12D1493F62
:105A4000F8BB4B3F029F4D3F207A4F3F3D4D513FAA
:105A50004918533F31DB543FE595563F5348583F73
:105A60006AF2593F1A945B3F532D5D3F05BE5E3F7E
:105A70002146603F97C5613F5A3C633F59AA643F46
:105A8000880F663FD86B673F3CBF683FA7096A3FF6
:105A90000C4B6B3F5E836C3F93B26D3F9ED86E3F65
:105AA00073F56F3F0809713F5213723F4714733FFC
:105AB000DD0B743F0BFA743FC6DE753F07BA763FC5
:105AC000C58B773FF853783F9812793F9DC7793F50
:105AD00002737A3FBE147B3FCDAC7B3F283B7C3FBB
